:100000000C946A000C9487000C9487000C94870071
:100010000C9489000C9487000C9487000C94870042
:100020000C9487000C9487000C9487000C94870034
:100030000C9487000C9487000C9487000C94870024
:100040000C9487000C9487000C9487000C94870014
:100050000C948700F119F619FF19181A1F1A221AA1
:10006000251A511A791A9D1AE61AEB1AF21AF51A7C
:10007000241B731B7A1B801B871B8F1B951B9C1BD0
:10008000AE1BA31BAB1BAE1BBB1B05A84CCDB2D438
:100090004EB93836A9020C50B9918688083CA6AAF8
:1000A000AA2ABE000000803F0706050403020100E3
:1000B0001020304050607071727374757677675796
:1000C0004737271704031221304051627374655675
:1000D0004737261511241FBECFE5D8E0DEBFCDBFC0
:1000E00010E0A0E6B0E0E8E3F1E402C005900D9274
:1000F000AA39B107D9F711E0AAE9B0E001C01D9211
:10010000AC31B107E1F70E9451010C949A200C9494
:1001100000001F920F920FB60F9211242F933F935E
:100120008F939F93EF93FF9315BAC39A20E030E02B
:10013000E0911B01F0E083E0EE0FFF1F8A95E1F7ED
:10014000E20FF31FE552FF4F80818BBB98B3822FE4
:100150008F5F8770987F892B88BB2F5F3F4F283038
:10016000310531F7C39820911B0181E090E002C076
:10017000880F991F2A95E2F785BB80911B018F5F3D
:1001800080931B0180911B01883011F410921B0198
:10019000FF91EF919F918F913F912F910F900FBE03
:1001A0000F901F9018959FEF9ABB8FEE87BB94BB63
:1001B0008FED81BB1BBA15BA80E188BB80E282BBA0
:1001C0008AE083BD85B5856085BD85B5886085BDC0
:1001D00014BC89B7806889BF10BC87E189B986E8FB
:1001E00080BD88E18AB91CB808951F9340E050E0B3
:1001F00020E030E014E004C040E050E020E030E0D7
:1002000082B3812782BB5F9BFECF8CB190E08F3F92
:10021000910531F45F9BFECF8CB190E0009761F3C4
:10022000FA0193E0EE0FFF1F9A95E1F7E20FF31F3B
:10023000E556FF4F80832730310549F4473051059B
:1002400019F40E949009D8CF4F5F5F4FD7CF2F5F2F
:100250003F4FD6CFCF93DF93939AC0E0D0E0219663
:10026000CE010E94F41F88EE93E00E9480079398CD
:10027000929A859B0DC0B49B0EC088EE93E00E94BD
:1002800080079298939A859B03C0B499E8CF03C0E6
:1002900022E030E002C021E030E0C901DF91CF91DF
:1002A0000895CF93DF930E94D30081E080931B01D8
:1002B0000E942A017894029711F40E94F500C0E090
:1002C000D0E0CE010E94D8192196CB31D105BCF7E0
:1002D000F8CFDC0188309105F0F477FD1CC0683060
:1002E0007105CCF457FD17C048305105A4F4FA014C
:1002F00083E0EE0FFF1F8A95E1F7E60FF71FE55247
:10030000FF4F208181E090E002C0880F991FAA95DD
:10031000E2F7282B20830895DC0188309105F0F462
:1003200077FD1CC068307105CCF457FD17C048300C
:100330005105A4F4FA0193E0EE0FFF1F9A95E1F73F
:10034000E60FF71FE556FF4F208181E090E002C0E5
:10035000880F991FAA95E2F7282B20830895DC01C6
:1003600088309105F8F477FD1DC068307105D4F42C
:1003700057FD18C048305105ACF4FA0123E0EE0FE8
:10038000FF1F2A95E1F7E60FF71FE552FF4F208187
:1003900081E090E002C0880F991FAA95E2F780954E
:1003A000822380830895DC0188309105F8F477FD7D
:1003B0001DC068307105D4F457FD18C04830510590
:1003C000ACF4FA0133E0EE0FFF1F3A95E1F7E60FC8
:1003D000F71FE556FF4F208181E090E002C0880FB3
:1003E000991FAA95E2F78095822380830895089744
:1003F00078F477FD0DC06830710554F457FD08C0DE
:1004000090E0483051050CF091E081E0982701C060
:1004100090E0892F08959C01FA0188309105E0F45D
:1004200077FD1AC068307105BCF457FD15C048301F
:10043000510594F443E0EE0FFF1F4A95E1F7E60FF4
:10044000F71FE552FF4F808190E002C09595879598
:100450002A95E2F78170089580E00895DC0121304B
:10046000310501F588309105F8F477FD1DC068303D
:100470007105D4F457FD18C048305105ACF4FA01A9
:1004800053E0EE0FFF1F5A95E1F7E60FF71FE55215
:10049000FF4F808102C0220F331FAA95E2F7822B03
:1004A000808308950E94AF010895DC018830910592
:1004B000F0F477FD1CC068307105CCF457FD17C00F
:1004C00048305105A4F4FA01B3E0EE0FFF1FBA95CE
:1004D000E1F7E60FF71FE552FF4F208181E090E042
:1004E00002C0880F991FAA95E2F728272083089554
:1004F000CF93DF93FC01DA01E901681779071CF457
:10050000CB01BF01FC01ED93FC9379836883DF91FC
:10051000CF9108958830910598F420E030E043E0D1
:10052000880F991F4A95E1F74FEFFC01E20FF31F87
:10053000E552FF4F40832F5F3F4F28303105A9F729
:1005400008958830910590F420E030E053E0880F62
:10055000991F5A95E1F7FC01E20FF31FE552FF4F97
:1005600010822F5F3F4F28303105A9F708959C0175
:100570008830910530F581E090E002C0880F991F26
:100580002A95E2F7982F40E050E012C0FB01E20FFD
:10059000F31FE552FF4F8081892B80832F5F3F4FF0
:1005A0002830310599F74F5F5F4F4830510549F0CA
:1005B00020E030E0BA01E3E0660F771FEA95E1F74B
:1005C000E5CF08959C018830910538F581E090E0F1
:1005D00002C0880F991F2A95E2F7982F909540E066
:1005E00050E012C0FB01E20FF31FE552FF4F808184
:1005F000892380832F5F3F4F2830310599F74F5F64
:100600005F4F4830510549F020E030E0BA01F3E097
:10061000660F771FFA95E1F7E5CF089588309105C9
:1006200098F420E030E04FEFF901A3E0EE0FFF1F58
:10063000AA95E1F7E80FF91FE552FF4F40832F5FBE
:100640003F4F2830310581F708958830910590F4A7
:1006500020E030E0F901B3E0EE0FFF1FBA95E1F7BB
:10066000E80FF91FE552FF4F10822F5F3F4F2830F0
:10067000310581F70895893789F18A3709F445C032
:10068000883709F058C070E06830710508F053C031
:1006900081E090E002C0880F991F6A95E2F7982FD9
:1006A00040E050E012C0FB01E20FF31FE552FF4FA4
:1006B0008081892B80832F5F3F4F2830310599F748
:1006C0004F5F5F4F48305105B1F120E030E0BA0193
:1006D000E3E0660F771FEA95E1F7E5CF70E0683059
:1006E000710548F580E090E02FEFFC0133E0EE0F5C
:1006F000FF1F3A95E1F7E60FF71FE552FF4F208302
:1007000001968830910589F7089570E06830710589
:1007100090F480E090E023E0660F771F2A95E1F7E0
:100720002FEFFB01E80FF91FE552FF4F20830196E1
:1007300088309105B1F70895893791F18A3709F426
:1007400045C0883709F057C070E06830710508F07F
:1007500052C081E090E002C0880F991F6A95E2F7CD
:10076000982F909540E050E012C0FB01E20FF31F7C
:10077000E552FF4F8081892380832F5F3F4F2830D0
:10078000310599F74F5F5F4F48305105A1F120E0E7
:1007900030E0BA01B3E0660F771FBA95E1F7E5CF15
:1007A00070E06830710538F580E090E0FC01A3E06E
:1007B000EE0FFF1FAA95E1F7E60FF71FE552FF4F77
:1007C000108201968830910589F7089570E06830AD
:1007D000710588F480E090E0F3E0660F771FFA95EA
:1007E000E1F7FB01E80FF91FE552FF4F1082019678
:1007F00088309105B1F7089540E050E010C0FB014A
:10080000E20FF31FE552FF4F80832F5F3F4F2830E9
:100810003105A9F74F5F5F4F4830510549F020E09F
:1008200030E0BA0193E0660F771F9A95E1F7E7CFC2
:10083000089540E050E010C0FB01E20FF31FE556C1
:10084000FF4F80832F5F3F4F28303105A9F74F5F5F
:100850005F4F4830510549F020E030E0BA01E3E055
:10086000660F771FEA95E1F7E7CF0895EF92FF92C1
:100870000F931F93CF93DF93DC01EB01F90128174E
:10088000390714F4D901FC010C171D071CF4CE0123
:10089000E8018C01E416F5061CF4CA01A7017C01ED
:1008A00031968FEF90E09C0102C0220F331FEA9532
:1008B000E2F7209502C0880F991FAA95E2F7282336
:1008C0000EC0FB01EA0FFB1FE552FF4F8081822B18
:1008D000808311960A171B07A4F74F5F5F4FE4163A
:1008E000F50644F0DE01BA01F3E0660F771FFA95D2
:1008F000E1F7F0CFDF91CF911F910F91FF90EF9033
:100900000895CF92DF92EF92FF920F931F93CF93B0
:10091000DF93DC01F9012817390714F4D901FC0130
:10092000061717071CF4CB01B8018C01E416F50675
:100930001CF4CA01A7017C0181E090E09C010E2E0D
:1009400002C0220F331F0A94E2F70A2E02C0880F5A
:10095000991F0A94E2F7C22EC82A31968FEF90E0D1
:100960009C0102C0220F331FEA95E2F7D22ED094E9
:1009700002C0880F991FAA95E2F7D8229A0121C0D8
:10098000A617B70749F0A017B10731F024173507AC
:1009900019F02E153F0539F4FE01EA0FFB1FE55251
:1009A000FF4FD08208C0FE01EA0FFB1FE552FF4F48
:1009B00080818C29808311960A171B070CF72F5F03
:1009C0003F4FE216F30644F0DB01E90183E0CC0F70
:1009D000DD1F8A95E1F7F0CFDF91CF911F910F9145
:1009E000FF90EF90DF90CF9008958F929F92AF92FB
:1009F000BF92CF92DF92EF92FF920F931F93CF930C
:100A0000DF934C016B01EA0159012817390714F4EF
:100A100049015C010C151D051CF4C60168018C011F
:100A2000EC16FD061CF4CE01E7017C010894A11C24
:100A3000B11C8FEF90E09C010A2C02C0220F331FE3
:100A40000A94E2F70894A108B1082095082C02C086
:100A5000880F991F0A94E2F72823BE0183E0660FEE
:100A6000771F8A95E1F7FB01EC0DFD1DE552FF4F65
:100A70002083FB01E00FF11FE552FF4F2083A70108
:100A8000B3E0440F551FBA95E1F7FA01EC0DFD1DD7
:100A9000E552FF4F2083FA01E00FF11FE552FF4FAF
:100AA000208381E090E09C01082C02C0220F331FBC
:100AB0000A94E2F70A2C02C0880F991F0A94E2F701
:100AC000982FD60149C088E08816910400F5B7FD3B
:100AD0001EC0A830B105DCF4D7FD0BC0C830D1056D
:100AE00044F4FB01EA0FFB1FE552FF4F8081822B8C
:100AF0008083F7FC0CC088E0E816F10444F4FA01A6
:100B0000EA0FFB1FE552FF4F8081822B808388E034
:100B1000A816B10400F5B7FD1EC0A830B105DCF47D
:100B2000D7FD0BC0C830D10544F4FB01EA0FFB1F11
:100B3000E552FF4F8081892B8083F7FC0CC088E051
:100B4000E816F10444F4FA01EA0FFB1FE552FF4FE7
:100B50008081892B808311960A171B070CF0B3CF75
:100B6000AE0168C088E08816910478F5D7FC16C0FD
:100B700088E0C816D10494F457FD10C048305105E0
:100B80006CF4FA01A3E0EE0FFF1FAA95E1F7EC0D5C
:100B9000FD1DE552FF4F8081822B808317FD15C01C
:100BA0000830110594F457FD10C0483051056CF41D
:100BB000FA0173E0EE0FFF1F7A95E1F7E00FF11FE6
:100BC000E552FF4F8081822B808388E0A816B10414
:100BD00078F5D7FC16C088E0C816D10494F457FD08
:100BE00010C0483051056CF4FA0163E0EE0FFF1FAE
:100BF0006A95E1F7EC0DFD1DE552FF4F8081892BD1
:100C0000808317FD15C00830110594F457FD10C0FE
:100C1000483051056CF4FA0133E0EE0FFF1F3A95AE
:100C2000E1F7E00FF11FE552FF4F8081892B8083B0
:100C30004F5F5F4FE416F5060CF094CFDF91CF9134
:100C40001F910F91FF90EF90DF90CF90BF90AF90EA
:100C50009F908F9008956F5F7F4F2FEF30E0A90135
:100C600002C0440F551F6A95E2F7BA01609502C0B1
:100C7000220F331F8A95E2F7862F82230895482F8B
:100C8000282F30E08295869587708270942F991F67
:100C90009927991F892B942F9695969596959470E0
:100CA000892B46954870842B220F331F922F907109
:100CB000892B220F331F220F331F922F9072892B03
:100CC000220F331F220F331F922F9074892B220F74
:100CD000331F220F331F822B08952F923F924F9282
:100CE0005F926F927F928F929F92AF92BF92CF92BC
:100CF000DF92EF92FF920F931F93DF93CF93CDB7C5
:100D0000DEB762970FB6F894DEBF0FBECDBF4C01C1
:100D10005B012A0139016701281739073CF43401C6
:100D20004901C8018B015C016A01270113012818E0
:100D300039080A151B0544F4B501601B710B88279F
:100D400077FD8095982F07C00A191B09B8018827DD
:100D500077FD8095982F0E94051E7B018C01B101C3
:100D6000882777FD8095982F0E94051E9B01AC0176
:100D7000C801B7010E946A1D6D837E838F839887A7
:100D8000130128183908C414D50444F4B2016C19AD
:100D90007D09882777FD8095982F07C0C418D5084E
:100DA000B601882777FD8095982F0E94051E7B014C
:100DB0008C01B101882777FD8095982F0E94051E30
:100DC0009B01AC01C801B7010E946A1D69837A8347
:100DD0008B839C83382CC501AA2797FDA095BA2F39
:100DE00089879A87AB87BC87C201AA2797FDA09500
:100DF000BA2F8D879E87AF87B88B61C0A989BA89C2
:100E0000A830B10508F05AC0BD01681979098827D2
:100E100077FD8095982F0E94051E5B016C016D8106
:100E20007E818F819885A60195010E94CA1E7B0153
:100E30008C0169857A858B859C850E94051E9B01A6
:100E4000AC01C801B7010E94031D0E94D71D462EA8
:100E50005524B8E04B1651048CF569817A818B8159
:100E60009C81A60195010E94CA1E7B018C016D85A3
:100E70007E858F8598890E94051E9B01AC01C80163
:100E8000B7010E94031D0E94D71D70E068307105F4
:100E9000ACF4FB0173E0EE0FFF1F7A95E1F7E40D70
:100EA000F51DE552FF4F208181E090E0098802C0E6
:100EB000880F991F0A94E2F7282B20833394E32D9F
:100EC000F0E0FA8BE98B6E167F060CF097CF6296F6
:100ED0000FB6F894DEBF0FBECDBFCF91DF911F914B
:100EE0000F91FF90EF90DF90CF90BF90AF909F90C9
:100EF0008F907F906F905F904F903F902F900895CC
:100F00000BC020E000000000000000000000000016
:100F10002F5F2A35B9F70197009799F708952F9217
:100F20003F924F925F926F927F929F92AF92BF9249
:100F3000CF92DF92EF92FF920F931F93CF93DF93A5
:100F4000982E5B01CC24DD24F7E02F2E312C8FEF7F
:100F5000A8168FEFB80611F4760103C07101EC18E2
:100F6000FD0800E010E0270108944108510837010E
:100F70000894611C711C3AC08FEFA8168FEFB80659
:100F800011F4C30101C0C201AC018AE7981649F40B
:100F9000C801BE010E940B02282FC801BE01A70193
:100FA00019C089E7981651F4C801BA01AE010E9430
:100FB0000B02282FC801B701AE010CC088E79816B4
:100FC00061F4CA01BE01A8010E940B02282FC701CB
:100FD000BE01A80130E00E942E022196C830D10542
:100FE00059F60F5F1F4F0830110519F0C0E0D0E02F
:100FF000C3CF0894C11CD11C88E0C816D10409F0E5
:10100000A6CF8FEFA8168FEFB80619F0EE24FF24B5
:1010100003C0E7E0EE2EF12C00E010E01FC08AE7ED
:10102000981621F4C801BE01A7010DC089E79816E2
:1010300021F4C801B701AE0106C088E7981629F46B
:10104000C701BE01A8010E94AF012196C830D10599
:1010500031F70F5F1F4F0830110519F0C0E0D0E0E5
:10106000DECFDF91CF911F910F91FF90EF90DF9036
:10107000CF90BF90AF909F907F906F905F904F9078
:101080003F902F900895DF93CF93CDB7DEB7C05434
:10109000D0400FB6F894DEBF0FBECDBFDE01119673
:1010A000EBEDF0E080E401900D928150E1F740E03B
:1010B00050E0BE016F5F7F4F18C08C91F90193E043
:1010C000EE0FFF1F9A95E1F7E40FF51FE552FF4F72
:1010D00080831896215030408FEF2F3F380769F7F3
:1010E0004F5F5F4F4830510531F0DB01A40FB51F52
:1010F00027E030E0E2CFC05CDF4F0FB6F894DEBFF0
:101100000FBECDBFCF91DF9108958F929F92AF9286
:10111000BF92CF92DF92EF92FF920F931F93DF93D4
:10112000CF93CDB7DEB7C054D0400FB6F894DEBF32
:101130000FBECDBFDE011196EBEDF0E080E4019033
:101140000D928150E1F720E030E016C0FA01E80F7F
:10115000F91FE552FF4F1082019688309105B1F7D3
:101160002F5F3F4F2830310539F4EE24FF244E0124
:101170000894811C911C20C080E090E0A90163E0EC
:10118000440F551F6A95E1F7E1CFF60181916F0198
:101190000E943F06F501E00FF11FE552FF4F8083EB
:1011A0000F5F1F4F0830110581F70894E11CF11CF7
:1011B000F8E0EF16F10469F0C70123E0880F991FEA
:1011C0002A95E1F76401C80ED91E00E010E05C0129
:1011D000DCCFC05CDF4F0FB6F894DEBF0FBECDBFD3
:1011E000CF91DF911F910F91FF90EF90DF90CF9003
:1011F000BF90AF909F908F9008958F929F92AF92E3
:10120000BF92CF92DF92EF92FF920F931F93DF93E3
:10121000CF93CDB7DEB7C054D0400FB6F894DEBF41
:101220000FBECDBFDE011196EBEDF0E080E4019042
:101230000D928150E1F720E030E019C0FA01E80F8B
:10124000F91FE552FF4F1082019688309105B1F7E2
:101250002F5F3F4F2830310551F400E010E04E0180
:101260000894811C911CF1E0AF2EB12C38C080E0B5
:1012700090E0A901E3E0440F551FEA95E1F7DECFC6
:10128000C701042E02C0959587950A94E2F780FF66
:101290000AC02081C501042E02C0880F991F0A943C
:1012A000E2F7282B20834F5F5F4F4830510541F70D
:1012B0001196615070408FEF6F3F780759F08C9115
:1012C000E82EFF2440E050E0F601E60FF71FE5525C
:1012D000FF4FD6CF0F5F1F4F0830110569F0C801CF
:1012E00073E0880F991F7A95E1F7D401A80FB91F11
:1012F00067E070E06C01E3CFC05CDF4F0FB6F8949D
:10130000DEBF0FBECDBFCF91DF911F910F91FF9038
:10131000EF90DF90CF90BF90AF909F908F90089507
:10132000ABEDB0E0EBE9F0E080E401900D9281508C
:10133000E1F70895CF93DF93EC01DC0120E030E08A
:1013400014C0A830B10574F4283031055CF4FD01F7
:1013500083E0EE0FFF1F8A95E1F7E20FF31FE552DE
:10136000FF4F60832F5F3F4F1197C217D3074CF792
:10137000CA010E948007CE01DF91CF9108950F939B
:101380001F93CF93DF938B01EA01892B51F080E10A
:1013900090E0BE01A8010E949A09019797FFF9CF3A
:1013A0000AC080E090E0BE01A8010E949A0901965F
:1013B00080319105C4F3DF91CF911F910F91089572
:1013C0007F928F929F92AF92BF92CF92DF92EF92D5
:1013D000FF920F931F93CF93DF93E82EF62E742E78
:1013E0006901C0E0D0E027E0822E912C98E0A92E80
:1013F000B12C87E0781669F484010C1B1D0BA50144
:101400004C1B5D0B8E2D90E06F2D70E00E94AF01A4
:101410000AC0AE01415050408E2D90E06F2D70E01B
:101420000E94AF018E018E2D90E06F2D70E0A8011B
:101430000E946901C6010E9480072196C830D1052B
:10144000C1F6DF91CF911F910F91FF90EF90DF9048
:10145000CF90BF90AF909F908F907F900895CF9244
:10146000DF92EF92FF920F931F93CF93DF936C0164
:101470007B010894E108F1088B0102501040080F2D
:10148000191F25C0C0E0D0E0F8018081682F70E00E
:101490006F70707082958F7090E0AE010E940B02A9
:1014A000282FF8018181682F70E06F70707082952D
:1014B0008F7090E0AE0130E00E942E022196C8307D
:1014C000D10511F70894E108F108015010401E14ED
:1014D0001F04C4F2C0E0D0E0F6018081682F70E004
:1014E0006F70707082958F7090E0AE010E94AF01B6
:1014F0002196C830D10581F7DF91CF911F910F91CF
:10150000FF90EF90DF90CF9008955F926F927F925F
:101510008F929F92AF92BF92CF92DF92EF92FF9203
:101520000F931F93DF93CF93CDB7DEB76C970FB6B2
:10153000F894DEBF0FBECDBF4C01562E3A0180E0BD
:101540005E010894A11CB11CB5014CE150E00E9461
:101550005D19CC24DD243FC0852D6F2D4E2D0E94BA
:101560007719882341F080E090E067E070E0A801FF
:101570000E94690107C080E090E067E070E0A80188
:101580000E94AF010F5F1F4FFA948FEFF81621F7FB
:10159000C4010E948007C5016CE170E00E942F0A1F
:1015A000E39488E0E81629F000E010E037E0F32E3D
:1015B000D3CF00E010E0C4010E948007C5016CE1B8
:1015C00070E00E942F0A0F5F1F4F0431110599F739
:1015D0000894C11CD11CC614D70414F4EE24E4CF23
:1015E00000E010E07E010894E11CF11CC4010E949F
:1015F0008007C7016CE170E00E942F0A0F5F1F4F48
:101600000A30110599F76C960FB6F894DEBF0FBE3D
:10161000CDBFCF91DF911F910F91FF90EF90DF90A1
:10162000CF90BF90AF909F908F907F906F905F9082
:1016300008952F923F924F925F926F927F928F9276
:101640009F92AF92BF92CF92DF92EF92FF920F9351
:101650001F93DF93CF93CDB7DEB7A1970FB6F89462
:10166000DEBF0FBECDBF3C016B0156E0852E912C35
:101670008C0E9D1E80E0B4014CE150E00E945D198B
:101680001E010894211C311C240143C0B1010E9499
:10169000B4197101F701808100E010E0A82EBB248D
:1016A00087E090E0801B910B950102C0359527954E
:1016B0008A95E2F720FF08C080E090E067E070E0E4
:1016C000A8010E94690107C080E090E067E070E037
:1016D000A8010E94AF010F5F1F4F0830110501F7ED
:1016E000C4016CE170E00E942F0AC3010E948007D0
:1016F0000894E11CF11CE414F50461F60894C11C83
:10170000D11CC2016CE170E00E942F0AC3010E944B
:101710008007F6018081882309F0B8CF00E010E04F
:1017200046E0E42EF12CEC0EFD1EC7016CE170E0EA
:101730000E942F0AC3010E9480070F5F1F4F0C31C8
:10174000110599F7A1960FB6F894DEBF0FBECDBF75
:10175000CF91DF911F910F91FF90EF90DF90CF908D
:10176000BF90AF909F908F907F906F905F904F90C1
:101770003F902F9008959F92AF92BF92CF92DF92A9
:10178000EF92FF920F931F93DF93CF93CDB7DEB706
:1017900060970FB6F894DEBF0FBECDBF5C016B0142
:1017A00081E08E010F5F1F4FB80140E150E00E94C1
:1017B0005D19EE24FF24902E012F15C0A70147705C
:1017C000507084E090E060E070E00E946901C60122
:1017D0000E948007892D902F6CE170E00E942F0AF3
:1017E0000894E11CF11CEA14FB0444F360960FB664
:1017F000F894DEBF0FBECDBFCF91DF911F910F9147
:10180000FF90EF90DF90CF90BF90AF909F900895A2
:101810007F928F929F92AF92BF92CF92DF92EF9280
:10182000FF920F931F93DF93CF93CDB7DEB76C97E3
:101830000FB6F894DEBF0FBECDBF4C015B0180E058
:101840008E010F5F1F4FB8014CE150E00E945D19FF
:1018500074E0E72EF12CCC24DD24702E012F2AC059
:101860000E94EF1F0894E108F10863E070E00E9415
:10187000771FE80EF91E88E0E816F10424F067E00F
:10188000E62EF12C04C0F7FE02C0EE24FF24872DC3
:10189000902F6CE170E00E942F0A80E090E067E0FA
:1018A00070E0A7010E946901C5010E9480070894A9
:1018B000C11CD11CC814D9049CF26C960FB6F894C4
:1018C000DEBF0FBECDBFCF91DF911F910F91FF9073
:1018D000EF90DF90CF90BF90AF909F908F907F90D0
:1018E00008952F923F924F925F926F927F928F92C4
:1018F0009F92AF92BF92CF92DF92EF92FF920F939F
:101900001F93DF93CF93CDB7DEB7EC970FB6F89464
:10191000DEBF0FBECDBF9FA78EA769AB7AAB48AB2A
:10192000DE011196E0E6F0E080E201900D92815038
:10193000E1F71DA61CA69E012F5F3F4F3CAF2BAFCA
:10194000CEC1882499242224332444245524C4015C
:1019500001964114510451F44C018430910539F43D
:101960008824992451E0452E512C01C04C01C4011A
:1019700043E0880F991F4A95E1F76BAC7CAC681A7D
:10198000790AAA24BB24E7E0EBA32FE130E0620E42
:10199000731EE1E0F0E0EC0FFD1FE80FF91FFAAF56
:1019A000E9AF26C088A96BA1402F0E947719882330
:1019B00061F04114510411F4F70101C0F601608196
:1019C000C80170E0A5010E9469010F5F1F4F0894D4
:1019D000C108D1080894E11CF11C0830110511F769
:1019E0000894A11CB11CFBA1F150FBA3FF3F31F0F7
:1019F0006301E9ACFAAC00E010E0D4CF89A99AA960
:101A00000E94800780E00E94FC030894211C311C86
:101A100027E02216310409F09ACF662477241BA60A
:101A20001AA622243324C30101962114310451F44F
:101A30003C018430910539F46624772431E0232E6B
:101A4000312C01C03C01C30123E0880F991F2A9566
:101A5000E1F74BAC5CAC481A590A88249924E7E0BA
:101A6000ECA32FE130E0420E531EE1E0F0E0EC0F7A
:101A7000FD1FE80FF91FF8AFEFAB2BC04E2D415003
:101A800088A96CA10E947719882361F02114310480
:101A900011F4F60101C0F501808190E0B801A401C4
:101AA0000E9469010894E11CF11C01501040089447
:101AB000A108B1080894C11CD11CF9E0EF16F1048B
:101AC000E9F60894811C911C2CA121502CA32F3FD6
:101AD00049F05201CFA8D8AC81E0E82EF12C07E004
:101AE00010E0CCCF89A99AA90E94800780E00E94CB
:101AF000FC038AA59BA501969BA78AA7079709F0D7
:101B000092CF662477241AA219A219A618A6C30197
:101B10000196E9A1FAA1EF2B59F43C01843091051B
:101B200041F46624772421E030E03AA329A301C0E0
:101B30003C01C30103E0880F991F0A95E1F74BAC04
:101B40005CAC481A590AAA24BB2417E0212EEFE105
:101B5000F0E04E0E5F1E21E030E02C0F3D1F280FFD
:101B6000391F3EAB2DAB2AC048010894810891086B
:101B700088A9622D432D0E947719882369F089A1D5
:101B80009AA1892B11F4F70101C0F6016081C4010B
:101B900070E0A5010E9469010F5F1F4F3A940894FD
:101BA000C108D1080894E11CF11CFFEF3F16E1F6D3
:101BB0000894A11CB11C2A942F1641F06201EDA8D3
:101BC000FEA801E010E0B7E03B2ECECF89A99AA98C
:101BD0000E94800780E00E94FC0328A539A52F5FA2
:101BE0003F4F39A728A72730310509F090CF662449
:101BF0007724222433241FA21EA2C301019621149C
:101C0000310451F43C018430910539F46624772481
:101C1000A1E02A2E312C01C03C01C301F3E0880F62
:101C2000991FFA95E1F74BAC5CAC481A590A882425
:101C30009924E7E0EDA32FE130E0420E531EE1E0EE
:101C4000F0E0EC0FFD1FE80FF91FFCABEBAB2AC077
:101C500088A96DA1402F0E947719882361F0211473
:101C6000310411F4F60101C0F501808190E0B80162
:101C7000A4010E9469010894E11CF11C015010406C
:101C80000894A108B1080894C11CD11CF9E0EF1612
:101C9000F104F1F60894811C911C2DA121502DA373
:101CA0002F3F49F05201CBA8DCA8E1E0EE2EF12C49
:101CB00007E010E0CDCF89A99AA90E94800780E0B3
:101CC0000E94FC038EA19FA101969FA38EA307975C
:101CD00009F093CFECA5FDA53196FDA7ECA72CA5A7
:101CE0003DA58EA59FA5281739070CF42ACEEC96A2
:101CF0000FB6F894DEBF0FBECDBFCF91DF911F911D
:101D00000F91FF90EF90DF90CF90BF90AF909F909A
:101D10008F907F906F905F904F903F902F9008959D
:101D20006F927F928F929F92AF92BF92CF92DF92EB
:101D3000EF92FF920F931F93CF93DF933C014B01E0
:101D40005A01CC24DD242CC00E94EF1F8C010E947C
:101D5000EF1F7C010E94EF1FFC01C80168E070E0EA
:101D60000E94771F8C01C70168E070E00E94771F16
:101D70009C01CF0168E070E00E94771FAC01C801B0
:101D8000B9010E94690121968C169D06ECF6C501E9
:101D90000E94800780E00E94FC030894C11CD11CB3
:101DA000C614D7041CF4C0E0D0E0EECFDF91CF9191
:101DB0001F910F91FF90EF90DF90CF90BF90AF9069
:101DC0009F908F907F906F900895CF93DF93C1E0A5
:101DD000D0E085E090E0BE0148EC50E00E94900E1B
:101DE0002196C431D105A9F785E090E0BE0148EC09
:101DF00050E00E94900E2197B9F7DF91CF9108959E
:101E0000DF92EF92FF920F931F93CF93DF938C019A
:101E100080E00E94FC03C0E0D0E0DD24DA94780189
:101E200011C0F901E80FF91FE552FF4FD08201966A
:101E300088309105B1F7C7010E9480072196C8300C
:101E4000D10549F080E090E09E01E3E0220F331FCE
:101E5000EA95E1F7E6CFC801880F991F800F911F1F
:101E60000E948007C0E0D0E011C0F901E80FF91F1F
:101E7000E552FF4F1082019688309105B1F7C701F6
:101E80000E9480072196C830D10549F080E090E09B
:101E90009E0163E0220F331F6A95E1F7E6CFDF91E1
:101EA000CF911F910F91FF90EF90DF9008954F9287
:101EB0005F926F927F929F92AF92BF92CF92DF928A
:101EC000EF92FF920F931F93CF93DF93982E162FCD
:101ED000072F3A0180E00E94FC03212F302FC90117
:101EE0006C01C0E0D0E0F7E04F2E512C35C06114FA
:101EF000710431F0F5018081A201481B510904C031
:101F0000F7018081482F50E0FAE79F1619F4CE01BF
:101F1000B8010DC089E7981621F4CE01BA01A801D5
:101F200006C098E7991629F4CA01B801AE010E94CB
:101F300069010F5F1F4F0894A11CB11C0894E11C9C
:101F4000F11C0830110599F62196E8E0F0E0CE0E7C
:101F5000DF1EC830D10529F05601760100E010E0FF
:101F6000C6CFDF91CF911F910F91FF90EF90DF903F
:101F7000CF90BF90AF909F907F906F905F904F9069
:101F800008952F923F924F925F926F927F928F921D
:101F90009F92AF92BF92CF92DF92EF92FF920F93F8
:101FA0001F93DF93CF93CDB7DEB7C158D0400FB6A4
:101FB000F894DEBF0FBECDBFCF57DF4F8883C15827
:101FC000D0402B013A014901B1E4AB2EB12CAC0E4B
:101FD000BD1EF501A1E8CA2ED12CCC0EDD1E11923A
:101FE000EC15FD05E1F700E010E01E010894211C4E
:101FF000311C81E088169104C9F414C00E94EF1FBF
:1020000060E470E00E94771FE1E4F0E0EC0FFD1F58
:10201000E80FF91F8081882389F70F5F1F4F91E038
:10202000908316C0003411054CF312C082E088166C
:10203000910471F4003411055CF4E1E4F0E0EC0F7C
:10204000FD1FE00FF11F80818F5F80830F5F1F4FA7
:10205000F501EE24FF249081892F8150863010F401
:102060009F5F90838081873019F40894E11CF11CF4
:102070003196EC15FD0579F7D101F5018081411408
:10208000510419F097E0981B892F8C933196119683
:10209000EC15FD0599F7C3010E948007CF57DF4F6C
:1020A0008881C158D040B10140E050E00E94570FF4
:1020B00082B394E0892782BB80E4E816F10409F03A
:1020C00098CFCF57DF4F0FB6F894DEBF0FBECDBF0E
:1020D000CF91DF911F910F91FF90EF90DF90CF9004
:1020E000BF90AF909F908F907F906F905F904F9038
:1020F0003F902F9008953F924F925F926F927F9200
:102100008F929F92AF92BF92CF92DF92EF92FF9207
:102110000F931F93DF93CF93CDB7DEB7C058D04056
:102120000FB6F894DEBF0FBECDBF382E2B014A018B
:10213000390100E010E06E010894C11CD11C81E45B
:10214000E82EF12CEC0EFD1EF601E00FF11F1082BF
:102150000E94EF1FF701E00FF11F68E070E00E949E
:10216000771F80830F5F1F4F0034110569F7EE243E
:10217000FF245E010894A11CB11C11E4C12ED12CD6
:10218000CC0EDD1E1CC0D8019C918081981710F4E4
:102190009F5F9C930F5F1F4F31960C151D0599F79C
:1021A000832DB501A3010E94570FC2010E94800731
:1021B0000894E11CF11CB8E0EB16F10419F085015C
:1021C000F601E1CFF80127E0CE018F579F4F219311
:1021D000E817F907E1F7C4010E948007EE24FF2405
:1021E0004E010894811C911C1FC080819C9189170D
:1021F00010F48F5F80838081981710F48150808362
:1022000031961196E017F10781F7832DB401A301F0
:102210000E94570FC2010E9480070894E11CF11C24
:1022200088E0E816F10419F0F501D601DECFC058B8
:10223000DF4F0FB6F894DEBF0FBECDBFCF91DF9159
:102240001F910F91FF90EF90DF90CF90BF90AF90D4
:102250009F908F907F906F905F904F903F900895E8
:10226000AC01DC01FB0120E030E09C9180819817FB
:1022700010F49F5F9C939C918081891710F491507A
:102280009C932F5F3F4F119631962034310569F7AB
:102290008AE7BA0140E050E00E94570F08952F925C
:1022A0003F924F925F926F927F928F929F92AF92E6
:1022B000BF92CF92DF92EF92FF920F931F93DF9323
:1022C000CF93CDB7DEB7C058D0400FB6F894DEBF7D
:1022D0000FBECDBF2C017B0100E010E05E01089431
:1022E000A11CB11C54E0952E41E4C42ED12CCC0E7F
:1022F000DD1EF501E00FF11F90820E94EF1FF60135
:10230000E00FF11F68E070E00E94771F80830F5F8D
:102310001F4F0034110569F700E010E031E4A32EEF
:10232000B12CAC0EBD1E6E010894C11CD11C37012E
:10233000C601B5014AE70E943011C3010E9480071F
:102340000F5F1F4F0830110599F75701AA0CBB1CEE
:10235000AA0CBB1CCC24DD2491E4892E912C8C0E7C
:102360009D1E1E010894211C311C32C000E010E0AB
:10237000C101B4014AE70E943011C3010E948007E5
:102380000F5F1F4F0830110599F7C5010E948007A4
:10239000EE24FF240E94EF1F8C010E94EF1F9C017E
:1023A000C80160E470E00E94771FF401E80FF91F94
:1023B000C90168E070E00E94771F80830894E11CE7
:1023C000F11C80E2E816F10429F70894C11CD11C25
:1023D000C414D5045CF2C058DF4F0FB6F894DEBFCA
:1023E0000FBECDBFCF91DF911F910F91FF90EF9066
:1023F000DF90CF90BF90AF909F908F907F906F9025
:102400005F904F903F902F9008958F929F92AF9240
:10241000BF92CF92DF92EF92FF920F931F93CF93D1
:10242000DF934C018B016130710511F480E001C034
:102430008FEF0E94FC03C0E0D0E00E94EF1F68E035
:1024400070E00E94771FB82EA92E0E94EF1F68E04F
:1024500070E00E94771FD82EC92E0E94EF1F68E0FF
:1024600070E00E94771FF82EE92E0115110559F42E
:102470008B2D9A2D6D2D7C2D4F2D5E2D0E940B02E4
:102480008130D9F40DC001301105B9F48B2D9A2D8E
:102490006D2D7C2D4F2D5E2D0E940B02882369F43B
:1024A0008B2D9A2D6D2D7C2D4F2D5E2D98010E9428
:1024B0002E02C4010E948007219681E0CF3FD807F9
:1024C0000CF4BBCFDF91CF911F910F91FF90EF9054
:1024D000DF90CF90BF90AF909F908F9008956F92B4
:1024E0007F928F929F92AF92BF92DF92EF92FF9274
:1024F0000F931F93CF93DF933C015B014A0180E070
:102500000E94FC0300E010E01FC00E94EF1F62E089
:1025100070E00E94771FAC0163E0440F551F6A957D
:10252000E1F7481B590BC801BE010E9469012196C1
:10253000C830D10551F70F5F1F4F0830110521F446
:10254000DD24EE24FF2430C0C0E0D0E0DECF0E94C6
:10255000EF1FEC010E94EF1F68E070E00E94771F00
:10256000082F8E1501F1CE0168E070E00E94771F00
:10257000182F8D15C1F090E0602F70E040E050E022
:102580000E940B02882321F0812F602F40E003C0BE
:10259000812F602F47E095010E94E009C4010E944D
:1025A0008007D12EE02EF3948F2D90E086159705AD
:1025B00074F2DF91CF911F910F91FF90EF90DF9018
:1025C000BF90AF909F908F907F906F900895EF9203
:1025D000FF920F931F93CF93DF9380E00E94FC0341
:1025E00000E010E07FEEE72E72E0F72E47C080E0BB
:1025F0000E94FC03CE010E9480078FEF0E94FC0323
:1026000084E690E00E948007CE0166EF7FEF0E9493
:10261000771F88EE93E00E94771F6F507040C60FBF
:10262000D71F1C161D061CF388EE93E00E9480073E
:10263000CEEED2E080E00E94FC03C7018C1B9D0B14
:102640000E9480078FEF0E94FC0384E690E00E94C6
:102650008007CE0166EF7FEF0E94771F88EE93E040
:102660000E94771F6F507040C60FD71F1C161D06A3
:102670000CF30F5F1F4F0230110519F0CEEED2E0C0
:10268000B6CFDF91CF911F910F91FF90EF900895FA
:102690002F923F924F925F926F927F928F929F9272
:1026A000AF92BF92CF92DF92EF92FF920F931F9360
:1026B000DF93CF93CDB7DEB72E970FB6F894DEBF7A
:1026C0000FBECDBF9A8389837C836B835E834D83EA
:1026D00038872F831A8709874F5F5F4F21F4F7E010
:1026E0002F2E312C02C022243324E9E06E2E712CCF
:1026F00089819A81681A790A0E94EF1FB3010E94AA
:10270000771F6C010E94EF1FB3010E94771F7C01AD
:10271000442455247CC00E94EF1F8C010E94EF1FAF
:102720009C01C80163E070E00E94771F01978C0D47
:102730009D1D9E878D87181619061CF48615970512
:1027400014F0DE86CD86C90163E070E00E94771F39
:102750008C01015010400E0D1F1D101611061CF4A7
:10276000061517050CF087018B816D817E810E9413
:102770008F078D849E84AA24BB2431C0EB81FC8109
:10278000EA37F10521F4C401B601A10115C08B811E
:102790009C818937910521F4C401B101A6010CC0C7
:1027A000EB81FC81E837F10549F44D855E854E0DDE
:1027B0005F1DC1016B857C850E9469010894E11C45
:1027C000F11C0894C11CD11C89819A81E816F90674
:1027D000ACF20894A11CB11C0894811C911CE981E5
:1027E000FA81AE16BF064CF46801EE24FF24C50141
:1027F000800F911F9C878B87E7CF89859A850E94E0
:1028000080070894411C511CCD84DE847801EF813F
:10281000F8854E165F060CF47ECF2E960FB6F89410
:10282000DEBF0FBECDBFCF91DF911F910F91FF9003
:10283000EF90DF90CF90BF90AF909F908F907F9060
:102840006F905F904F903F902F900895AF92BF92FE
:10285000CF92DF92EF92FF920F931F93CF93DF936C
:102860005C01CC24DD2433C00E94EF1F64E070E0E3
:102870000E94771FEC01EE24FF241AC00E94EF1F74
:102880008C010E94EF1F9C01C80168E070E00E946B
:10289000771FFC01C90168E070E00E94771FBC014E
:1028A000CF0147E050E00E9469010894E11CF11C4F
:1028B000EC16FD061CF388EE93E00E9480078AE781
:1028C0006FEF7FEF0E948F070894C11CD11CCA14C0
:1028D000DB0454F2DF91CF911F910F91FF90EF90A5
:1028E000DF90CF90BF90AF9008954F925F926F921C
:1028F0007F928F929F92AF92BF92CF92DF92EF9290
:10290000FF920F931F93DF93CF9300D000D00F92CD
:10291000CDB7DEB76C013E010894611C711CB0E8B4
:102920004B2E512C44C0B3010E94B419EE24FF2455
:1029300020C09201002E02C0359527950A94E2F737
:10294000F401808190E028233923232B31F087E0A4
:1029500090E0B501A8010E9469010F5F1F4F083088
:10296000110539F70894E11CF11CF5E0EF16F104AC
:1029700059F000E010E043018E0C9F1CA2E0AA2E4B
:10298000B12CAE0CBF1CD5CF00E010E088EE93E078
:102990000E94800788E76FEF7FEF0E948F070F5F2D
:1029A0001F4F0630110591F70894C11CD11CF60188
:1029B0008081882309F0B7CF00E010E088EE93E033
:1029C0000E94800788E76FEF7FEF0E948F070F5FFD
:1029D0001F4F0830110591F70F900F900F900F9037
:1029E0000F90CF91DF911F910F91FF90EF90DF90AB
:1029F000CF90BF90AF909F908F907F906F905F909F
:102A00004F9008952F923F924F925F926F927F92D4
:102A10008F929F92AF92BF92CF92DF92EF92FF92EE
:102A20000F931F93DF93CF93CDB7DEB7E8970FB621
:102A3000F894DEBF0FBECDBF9AAB89AB7CAB6BAB5E
:102A4000222E80E00E94FC030E94EF1F68E070E0ED
:102A50000E94771F7C013C010E94EF1F68E070E03C
:102A60000E94771F8C012C010E94EF1F68E070E02C
:102A70000E94771F382F292F6C01FE013196CE015D
:102A8000C1969EAB8DAB00831183E282F3823483C7
:102A9000258336968DA99EA9E817F907A1F711E0BD
:102AA000E12EF12CB1E08B2E912CA1E0AA2EB12CBD
:102AB000FE013B97F8AFEFAB4BC20E94EF1F63E004
:102AC00070E00E94771F892B71F50E94EF1F63E071
:102AD00070E00E94771F009759F40E94EF1F63E097
:102AE00070E00E94771F7C010894E108F1081BC088
:102AF0008130910559F40E94EF1F63E070E00E945D
:102B0000771F4C010894810891080DC0823091050F
:102B100051F40E94EF1F63E070E00E94771F5C0198
:102B20000894A108B108FFEFEF16FFEFFF0699F434
:102B30004114510481F40E94EF1F63E070E00E9491
:102B4000771F019719F0EE24FF2403C0F1E0EF2E68
:102B5000F12C11E001C010E08FEF88168FEF98067E
:102B600099F46114710481F40E94EF1F63E070E036
:102B70000E94771F019719F08824992403C0E1E08F
:102B80008E2E912C01E001C000E09FEFA9169FEF6F
:102B9000B906A1F4C114D10489F40E94EF1F63E0C7
:102BA00070E00E94771F019719F0AA24BB2403C08C
:102BB00071E0A72EB12C3324339401C03324E1E01B
:102BC000EE16F10499F4F7E04F16510479F40E94DF
:102BD000EF1F63E070E00E94771F019719F0EE2469
:102BE000FF2403C0EE24EA94FE2C11E081E0881655
:102BF000910499F497E06916710479F40E94EF1F2B
:102C000063E070E00E94771F019719F088249924EF
:102C100003C088248A94982C01E0E1E0AE16B10448
:102C2000A1F4F7E0CF16D10481F40E94EF1F63E016
:102C300070E00E94771F019719F0AA24BB2403C0FB
:102C4000AA24AA94BA2C33243394112351F1811469
:102C5000910491F487E06816710439F061147104ED
:102C600041F00E94EF1F80FD04C088248A94982CB4
:102C700003C061E0862E912CA114B10491F497E079
:102C8000C916D10439F0C114D10441F00E94EF1FDC
:102C900080FD04C0AA24AA94BA2C03C051E0A52E3A
:102CA000B12C002351F1E114F10491F4E7E04E1648
:102CB000510439F04114510441F00E94EF1F80FD8E
:102CC00004C0EE24EA94FE2C03C041E0E42EF12C73
:102CD000A114B10491F4F3E0CF16D10439F0C1147A
:102CE000D10441F00E94EF1F80FD04C0AA24AA94E1
:102CF000BA2C03C031E0A32EB12C332061F1811432
:102D0000910491F487E06816710439F0611471043C
:102D100041F00E94EF1F80FD04C088248A94982C03
:102D200003C021E0822E912CE114F104A1F497E07C
:102D30004916510421F4EE24EA94FE2C29C04114D2
:102D4000510421F491E0E92EF12C08C00E94EF1FFC
:102D500080FF04C151C041145104B1F461147104E5
:102D600041F4C114D10451F1E7E0CE16D10461F46D
:102D700025C0F7E06F16710439F4C114D104F1F0E5
:102D800087E0C816D104D1F097E04916510461F5E7
:102D90006114710441F4C114D10481F0E7E0CE164E
:102DA000D10411F50BC0F7E06F167104E9F4C114FA
:102DB000D10421F087E0C816D104B1F40E94EF1FBE
:102DC00063E070E00E94771F009719F4EE24FF245F
:102DD0000BC08130910519F48824992405C08230F4
:102DE000910511F4AA24BB244114510441F49FEF2E
:102DF000E9169FEFF90619F481E0E82EF12C611431
:102E0000710441F4EFEF8E16EFEF9E0619F401E026
:102E1000802E912CC114D10441F4FFEFAF16FFEFC7
:102E2000BF0619F411E0A12EB12C87E04816510419
:102E300039F491E0E916F10419F4EE24EA94FE2C39
:102E4000E7E06E16710439F4F1E08F16910419F47D
:102E500088248A94982C87E0C816D10439F491E02C
:102E6000A916B10419F4AA24AA94BA2C4E0C5F1C1A
:102E7000680C791CCA0CDB1CE1E02E1679F4C20147
:102E8000B301A6010E9469018BA99CA90E94800739
:102E9000C201B301A6010E94AF0155C0F2E02F1696
:102EA00051F4C201B301A6010E9455028BA99CA94D
:102EB0000E94800748C083E0281609F044C0FE0144
:102EC000B596808191819783868382819381918752
:102ED0008087848195819387828736978FA998AD63
:102EE000E817F90771F75A8249827C826B82DE8289
:102EF000CD828E010F5F1F4FF80162817381448183
:102F00005581808191810E9469010A5F1F4F8DA9BF
:102F10009EA90817190781F78BA99CA90E94800711
:102F20008E010F5F1F4FF8016281738144815581CB
:102F3000808191810E94AF010A5F1F4F8DA99EA9D8
:102F40000817190781F7E9A9FAA93197FAABE9AB94
:102F500089A99AA9892B09F0B0CD04C0EE24EA947E
:102F6000FE2C4DCFE8960FB6F894DEBF0FBECDBF56
:102F7000CF91DF911F910F91FF90EF90DF90CF9055
:102F8000BF90AF909F908F907F906F905F904F9089
:102F90003F902F900895CF92DF92EF92FF920F9380
:102FA0001F93CF93DF93F82E6B01EA0180E00E941C
:102FB000FC038F2D90E00E948A0210E10E94EF1F17
:102FC00064E070E00E94771FE82E0E94EF1F64E02B
:102FD00070E00E94771F082F8E2D90E0602F70E028
:102FE0004F2D50E00E940B02882341F38E2D602F5D
:102FF0004F2D96010E94E009CE010E9480071150DA
:10300000E9F6DF91CF911F910F91FF90EF90DF9044
:10301000CF9008958F929F92AF92BF92CF92DF92FE
:10302000EF92FF920F931F93CF93DF935C016B019D
:1030300080E00E94FC03C0E0D0E003E0802E912CF1
:103040001C141D0414F0CE0103C0C4018C1B9D0B85
:10305000AC014C5F5F4F7401E81AF90ACA01BA016A
:10306000970187010E94F504C5010E94800780E056
:103070000E94FC032196C430D10511F7DF91CF9156
:103080001F910F91FF90EF90DF90CF90BF90AF9086
:103090009F908F9008952F923F924F925F926F92E0
:1030A0007F928F929F92AF92BF92CF92DF92EF92D8
:1030B000FF920F931F93DF93CF9300D0CDB7DEB76E
:1030C0009A8389834B011A012901AA24BB242EEF7C
:1030D000622E2FEF722E660E771E4BC0CC24DD249D
:1030E00088E0C816D10434F497E0E92EF12CEC18EE
:1030F000FD0806C088EFE82E8FEFF82EEC0CFD1CC3
:1031000080E00E94FC0381E090E00E948007F89438
:1031100080E090E060E070E040E050E097018701DF
:103120000E94F5041214130414F40E94430891E061
:103130008916910421F0E3E08E16910411F40E94A7
:10314000FD08F2E06F16710410F40E94850878946F
:10315000C2010E94800780E00E94FC030894C11C09
:10316000D11C80E1C816D10409F0BACF0894A11C83
:10317000B11CE981FA81AE16BF060CF4AFCF0F90F7
:103180000F90CF91DF911F910F91FF90EF90DF9003
:10319000CF90BF90AF909F908F907F906F905F90F7
:1031A0004F903F902F900895EF92FF920F931F93AF
:1031B000E82EF62E072F10E080E00E94FC038E2DF3
:1031C000612F0E943B038F2D902F0E9480071F5F6D
:1031D000183091F717E080E00E94FC038E2D612FDC
:1031E0000E943B038F2D902F0E948007115098F76B
:1031F0001F910F91FF90EF900895AF92BF92CF92E1
:10320000DF92EF92FF920F931F93CF93DF93C0E073
:10321000D0E0BE0133E0759567953A95E1F78827D0
:1032200077FD8095982F0E94051E7B018C010E94DE
:103230002D1F9B01AC010E94031D20E030E040E601
:1032400050E40E94031D0E94D21D5B016C01C80165
:10325000B7010E94671D9B01AC010E94031D20E085
:1032600030E040E650E40E94031D0E94D21D7B0125
:103270008C01C501B70141E050E00E946901C50120
:10328000B70141E050E00E94690188EE93E00E949E
:10329000800780E00E94FC03219683E0C83ED807A7
:1032A00009F0B7CFDF91CF911F910F91FF90EF9071
:1032B000DF90CF90BF90AF900895813019F48CE1EA
:1032C00090E002C080E090E0DC01A855BF4F20E014
:1032D00030E009C0FD018491FB01E20FF31F808300
:1032E0002F5F3F4F119624173507A4F308951F93BE
:1032F000142F90E023E0880F991F2A95E1F7860F9D
:10330000911D89539E4F0E94FF1F90E002C095952A
:1033100087951A95E2F781701F910895EF92FF92B9
:103320000F931F93CF93DF937B01C82FD0E033E03F
:10333000CC0FDD1F3A95E1F7C953DE4F00E010E0F6
:10334000CE010E94FF1FF701E00FF11F80830F5F86
:103350001F4F21960830110599F7DF91CF911F91EA
:103360000F91FF90EF900895EF92FF920F931F93AC
:10337000CF93DF937B01805295E0899F80011124D8
:1033800000501040C0E0D0E0C8010E94FF1FF701CC
:10339000EC0FFD1F808321960F5F1F4FC530D105B5
:1033A00099F7DF91CF911F910F91FF90EF900895C2
:1033B000EF92FF920F931F93CF93DF93182F092F54
:1033C00080E00E94FC03E12FF02FEB31F10508F0C3
:1033D000DBC1E65DFF4FEE0FFF1F0590F491E02D7E
:1033E000099484E690E00E942614D2C184E190E022
:1033F0006CED70E040ED57E00E946F12C9C185E0AE
:1034000090E061E070E00E94051285E090E060E0ED
:1034100070E00E94051285E090E061E070E00E949B
:10342000051285E090E060E070E00E940512B0C1F6
:1034300084E190E068EE73E00E944F11A9C182E040
:1034400090E08EC10E94E712A3C100E010E0B80135
:1034500063707070A8014470507081E090E022ECBD
:1034600031E00E944B180F5F1F4F0830110579F7AC
:1034700080E293E060E070E00E940A1880E293E04E
:1034800061E070E00E940A1880E293E060E070E082
:103490000E940A1880E293E061E070E00E940A183E
:1034A00077C18AE790E060E971E00E94D41888E76C
:1034B00090E060E971E00E94D41889E790E060E94B
:1034C00071E00E94D4188AE790E060E971E00E9400
:1034D000D41888E790E060E971E00E94D41889E789
:1034E00090E060E971E00E94D41880E00E94FC0343
:1034F0004FC180E00E94FC0380E090E060E273E056
:103500004FEF50E00E94BF0980E090E060E273E07E
:1035100040E050E00E94BF0981E090E060E273E08B
:103520004FEF50E00E94BF0981E090E060E273E05D
:103530004FEF50E00E94BF092BC18AE766E272E0BC
:1035400048E853E120E030E00E947B108AE766E221
:1035500072E048E853E121E030E00E947B108AE706
:1035600066E272E048E853E120E030E00E947B1020
:103570008AE766E272E048E853E121E030E00E9429
:103580007B1088E766E272E048E853E120E030E033
:103590000E947B1088E766E272E048E853E121E090
:1035A00030E00E947B1089E766E272E048E853E170
:1035B00020E030E00E947B1089E766E272E048E894
:1035C00053E121E030E00E947B10E2C08CEB92E0FE
:1035D0000E94000FDDC081E090E06AE770E041E00A
:1035E00050E0C2C080E890E0D1C080E00E94FC03BF
:1035F000C0E0D0E00E94EF1F8C010E94EF1F7C0111
:103600000E94EF1FFC01C80164E070E00E94771F78
:103610008C01C70164E070E00E94771F9C01CF011C
:1036200064E070E00E94771FAC01C801B9010E94FC
:1036300069012196C431D105E9F684E190E060E9A1
:1036400071E00E94B21CA4C08AE760E070E048EC20
:1036500050E021E030E00E94C10F8CED95E00E9427
:1036600080078AE761E070E048EC50E021E030E05C
:103670000E94C10F8CED95E00E9480078AE760E010
:1036800070E048EC50E022E030E00E94C10F8CED89
:1036900095E00E9480078AE761E070E048EC50E026
:1036A00022E030E00E94C10F8CED95E00E9480077F
:1036B00089E760E070E048EC50E021E030E00E94F3
:1036C000C10F8CED95E00E94800789E761E070E012
:1036D00048EC50E021E030E00E94C10F8CED95E015
:1036E0000E94800755C08AEF90E068E572E041E0F3
:1036F00022E047C082E090E068EE73E040E028C03E
:1037000084E690E064EF71E00E94BB0B41C08CEB5B
:1037100092E062E043E050E00E94850A39C082E016
:1037200090E068EE73E041E013C088EE93E06EE84D
:1037300070E00E94190B2CC088EC90E064EF71E0FF
:103740000E94080C25C082E090E068EE73E042E041
:103750000E94710C1DC00E94E50E1AC081E090E02D
:103760006AE770E04FEF5FEF24E630E008EE13E029
:103770000E9448130DC08AEF90E068E572E041E0D6
:1037800023E00E94021504C081E990E00E947514B4
:10379000DF91CF911F910F91FF90EF900895CF93FC
:1037A000DF9360E070E040E050E018C0FE01E20FFF
:1037B000F31FDF01A556BF4F9C91E552FF4F80815B
:1037C000981711F06F5F7F4F2F5F3F4F2830310503
:1037D00069F74F5F5F4F4830510549F020E030E016
:1037E000EA0183E0CC0FDD1F8A95E1F7DFCFCB0143
:1037F000DF91CF9108953F924F925F926F927F92A7
:103800008F929F92AF92BF92CF92DF92EF92FF92F0
:103810000F931F93CF93DF933C014B015A01DD249B
:10382000EE24EA94FE2C34C0E114F10429F40115CD
:10383000110511F4209781F0CE018A0D9B1D68E0DF
:1038400070E00E94771FAC01832D942D652D7C2D97
:103850000E940B028111D3942196C230D10521F729
:103860000F5F1F4F0230110561F0C801880D991DCF
:1038700068E070E00E94771F582EC92ECFEFDFEF6F
:10388000D3CF0894E11CF11C82E0E816F10461F04A
:10389000C701860D971D68E070E00E94771F382EE3
:1038A000492E0FEF1FEFE1CF8D2DDF91CF911F91AB
:1038B0000F91FF90EF90DF90CF90BF90AF909F90CF
:1038C0008F907F906F905F904F903F900895DF9220
:1038D000EF92FF920F931F93CF93DF9380E00E94AC
:1038E0001904EE24FF2433C0C701B801AE010E94C1
:1038F000FB1BD82EC701B801AE010E940B0281301C
:1039000059F48D1518F483E08D1548F4C701B801FA
:10391000AE010E94D30108C083E0D81629F4C70184
:10392000B801AE010E948C012196C830D105E1F6A4
:103930000F5F1F4F0830110519F0C0E0D0E0D4CF61
:103940000894E11CF11C88E0E816F10419F000E08D
:1039500010E0F3CFDF91CF911F910F91FF90EF9087
:10396000DF900895BF92CF92DF92EF92FF920F9374
:103970001F93CF93DF936C017B01C0E0D0E028E080
:10398000B22E33C082B38B2582BB0E94671C60E0DD
:1039900070E040E050E018C0F801E20FF31FDF01D3
:1039A000A556BF4F9C91E552FF4F8081981711F0AB
:1039B0006F5F7F4F2F5F3F4F2830310569F74F5FB3
:1039C0005F4F4830510549F020E030E08A0193E034
:1039D000000F111F9A95E1F7DFCF672B49F00E9486
:1039E0009009C7010E9480072196CC15DD0554F28D
:1039F000DF91CF911F910F91FF90EF90DF90CF90CB
:103A0000BF9008955058BB27AA270ED078C141D146
:103A100030F046D120F031F49F3F11F41EF436C14E
:103A20000EF4E095E7FB2CC1E92F8BD180F3BA1798
:103A3000620773078407950718F071F49EF5A3C118
:103A40000EF4E0950B2EBA2FA02D0B01B9019001B9
:103A50000C01CA01A0011124FF27591B99F0593FFD
:103A600050F4503E68F11A16F040A22F232F342F45
:103A70004427585FF3CF469537952795A795F04093
:103A80005395C9F77EF41F16BA0B620B730B840BA8
:103A9000BAF09150A1F0FF0FBB1F661F771F881F60
:103AA000C2F70EC0BA0F621F731F841F48F48795B8
:103AB00077956795B795F7959E3F08F0B3CF9395A7
:103AC000880F08F09927EE0F979587950895F0D005
:103AD000E39526C10CD013C1E3D040F0DAD030F02A
:103AE00021F45F3F19F0CCC051114EC1CFC029D194
:103AF00098F39923C9F35523B1F3951B550BBB27B5
:103B0000AA2762177307840738F09F5F5F4F220F61
:103B1000331F441FAA1FA9F333D00E2E3AF0E0E85A
:103B200030D091505040E695001CCAF729D0FE2FA6
:103B300027D0660F771F881FBB1F26173707480738
:103B4000AB07B0E809F0BB0B802DBF01FF279358EE
:103B50005F4F2AF09E3F510568F092C015C15F3F4C
:103B6000ECF3983EDCF3869577956795B795F795D6
:103B70009F5FC9F7880F911D9695879597F90895CE
:103B8000E1E0660F771F881FBB1F6217730784076A
:103B9000BA0720F0621B730B840BBA0BEE1F88F779
:103BA000E095089504D06894B111EEC00895D1D085
:103BB00088F09F5790F0B92F9927B751A0F0D1F016
:103BC000660F771F881F991F1AF0BA95C9F712C0A0
:103BD000B13081F0D8D0B1E00895D5C0672F782FEB
:103BE0008827B85F39F0B93FCCF38695779567950C
:103BF000B395D9F73EF490958095709561957F4F78
:103C00008F4F9F4F0895E89409C097FB3EF490951D
:103C10008095709561957F4F8F4F9F4F9923A9F0A5
:103C2000F92F96E9BB279395F69587957795679534
:103C3000B795F111F8CFFAF4BB0F11F460FF1BC078
:103C40006F5F7F4F8F4F9F4F16C0882311F096E90B
:103C500011C0772321F09EE8872F762F05C06623B9
:103C600071F096E8862F70E060E02AF09A95660F72
:103C7000771F881FDAF7880F9695879597F908952B
:103C800097F99F6780E870E060E008959FEF80EC0F
:103C9000089500240A9416161706180609060895B2
:103CA00000240A9412161306140605060895EECF92
:103CB00050D0E8F3E894E0E0BB279F57F0F02AEDFE
:103CC0003FE049EC06C0EE0FBB0F661F771F881F51
:103CD00028F0B23A62077307840728F0B25A620BE1
:103CE000730B840BE3959A9572F7803830F49A95AC
:103CF000BB0F661F771F881FD2F79048B6C0092EEA
:103D00000394000C11F4882352F0BB0F40F4BF2B36
:103D100011F460FF04C06F5F7F4F8F4F9F4F089576
:103D2000EF93E0FF06C0A2EA2AED3FE049EC5FEB2B
:103D30007BDEE5DF0F90039401FC9058EAE8F0E0A9
:103D4000A0C057FD9058440F551F59F05F3F71F0C8
:103D50004795880F97FB991F61F09F3F79F08795F2
:103D60000895121613061406551FF2CF4695F1DF7B
:103D700008C0161617061806991FF1CF869571050B
:103D8000610508940895E894BB2766277727CB013F
:103D900097F908950BD0B3CF7CDF28F081DF18F0BE
:103DA000952309F06DCF72CF1124EECFCADFA0F3B7
:103DB000959FD1F3950F50E0551F629FF001729FC0
:103DC000BB27F00DB11D639FAA27F00DB11DAA1FDF
:103DD000649F6627B00DA11D661F829F2227B00D2C
:103DE000A11D621F739FB00DA11D621F839FA00DB7
:103DF000611D221F749F3327A00D611D231F849F07
:103E0000600D211D822F762F6A2F11249F5750405D
:103E10008AF0E1F088234AF0EE0FFF1FBB1F661FF8
:103E2000771F881F91505040A9F79E3F510570F0B1
:103E300027CFAACF5F3FECF3983EDCF386957795CA
:103E40006795B795F795E7959F5FC1F7FE2B880FAC
:103E5000911D9695879597F908959F9329DF0F9067
:103E600007FCEE5F5DCF9F3F31F0915020F48795C6
:103E700077956795B795880F911D9695879597F9D2
:103E800008959F938F937F936F93FF93EF939B017D
:103E9000AC0180DFEF91FF9105D02F913F914F91C1
:103EA0005F9178CFDF93CF931F930F93FF92EF92A1
:103EB000DF927B018C01689405C0DA2EEF0176DF7A
:103EC000FE01E894A5912591359145915591AEF368
:103ED000EF01AADDFE019701A801DA9479F7DF90DE
:103EE000EF90FF900F911F91CF91DF91089597FB75
:103EF000092E07260AD077FD04D00CD006D000206A
:103F00001AF4709561957F4F0895F6F79095819515
:103F10009F4F0895AA1BBB1B51E107C0AA1FBB1FDF
:103F2000A617B70710F0A61BB70B881F991F5A9545
:103F3000A9F780959095BC01CD010895A0E0B0E06F
:103F4000E4EAFFE10C944920EC01A880B980CA8022
:103F5000DB80A114B104C104D10441F484E2A82E91
:103F600089EDB82E8BE5C82E87E0D82EC601B501A5
:103F70002DE133EF41E050E00E94262027EA31E4B2
:103F800040E050E00E9407207B018C01C601B50192
:103F90002DE133EF41E050E00E942620CA01B90133
:103FA0002CEE34EF4FEF5FEF0E9407206E0D7F1D68
:103FB000801F911F97FF04C061507040804090485F
:103FC000688379838A839B839B013F77C901CDB73F
:103FD000DEB7EAE00C9465200E949E1F089586E9F2
:103FE00090E00E949E1F0895A0E0B0E080939600AC
:103FF00090939700A0939800B09399000895E19949
:10400000FECF9FBB8EBBE09A99278DB30895629F28
:10401000D001739FF001829FE00DF11D649FE00DC0
:10402000F11D929FF00D839FF00D749FF00D659F21
:10403000F00D9927729FB00DE11DF91F639FB00D20
:10404000E11DF91FBD01CF011124089597FB092E31
:1040500005260ED057FD04D04BD00AD0001C38F4F2
:1040600050954095309521953F4F4F4F5F4F0895A4
:10407000F6F790958095709561957F4F8F4F9F4F84
:1040800008952F923F924F925F926F927F928F92FC
:104090009F92AF92BF92CF92DF92EF92FF920F93D7
:1040A0001F93CF93DF93CDB7DEB7CA1BDB0B0FB6E1
:1040B000F894DEBF0FBECDBF09942A88398848889E
:1040C0005F846E847D848C849B84AA84B984C88434
:1040D000DF80EE80FD800C811B81AA81B981CE0F2B
:1040E000D11D0FB6F894DEBF0FBECDBFED01089510
:1040F000A1E21A2EAA1BBB1BFD010DC0AA1FBB1FEC
:10410000EE1FFF1FA217B307E407F50720F0A21B5D
:10411000B30BE40BF50B661F771F881F991F1A94CA
:1041200069F760957095809590959B01AC01BD01F4
:08413000CF010895F894FFCFC0
:10413800000102030405060701010203040506063F
:10414800020203030404050503030303040404042F
:10415800494E53545255435441424C4553005447D9
:0A416800004641494C000100000030
:00000001FF
