:100000000C9456000C9473000C9473000C947300C1
:100010000C9475000C9473000C9473000C94730092
:100020000C9473000C9473000C9473000C94730084
:100030000C9473000C9473000C9473000C94730074
:100040000C9473000C9473000C9473000C94730064
:100050000C9473008B1F921F991FA01FA71FAE1F28
:10006000B51FBC1FC31FCA1FD11FDA1FF31FFA1F02
:1000700003202F2057207B208020C92018211F21FA
:100080000706050403020100102030405060707123
:1000900072737475767767574737271704031221F1
:1000A00030405162737465564737261511241FBEC0
:1000B000CFE5D8E0DEBFCDBF10E0A0E6B0E0EAE9D2
:1000C000F4E402C005900D92A436B107D9F710E010
:1000D000A4E6B0E001C01D92A63EB107E1F70E9480
:1000E0003D010C944B220C9400001F920F920FB60E
:1000F0000F9211242F933F938F939F93EF93FF932E
:1001000015BAC39A20E030E0E091E500F0E083E02A
:10011000EE0FFF1F8A95E1F7E20FF31FEB55FF4F3C
:1001200080818BBB98B3822F8F5F8770987F892BDC
:1001300088BB2F5F3F4F2830310531F7C39820919E
:10014000E50081E090E002C0880F991F2A95E2F750
:1001500085BB8091E5008F5F8093E5008091E5008D
:10016000883011F41092E500FF91EF919F918F91EB
:100170003F912F910F900FBE0F901F9018959FEFFA
:100180009ABB8FEE87BB94BB8FED81BB1BBA15BAB0
:1001900080E188BB80E282BB8AE083BD85B5856053
:1001A00085BD85B5886085BD14BC89B7806889BF69
:1001B00010BC87E189B986E880BD88E18AB91CB89E
:1001C00008951F9340E050E020E030E014E004C0C8
:1001D00040E050E020E030E082B3812782BB5F9BAB
:1001E000FECF8CB190E08F3F910531F45F9BFECF45
:1001F0008CB190E0009761F3FA0193E0EE0FFF1FDE
:100200009A95E1F7E20FF31FEB59FF4F80832730F8
:10021000310549F44730510519F40E944F09D8CFF0
:100220004F5F5F4FD7CF2F5F3F4FD6CFCF93DF9337
:10023000939AC0E0D0E02196CE010E94A52188EEDD
:1002400093E00E94BA069398929A859B0DC0B49B46
:100250000EC088EE93E00E94BA069298939A859B0E
:1002600003C0B499E8CF03C022E030E002C021E02F
:1002700030E0C901DF91CF910895CF93DF930E94C1
:10028000BF0081E08093E5000E94160178940297F8
:1002900011F40E94E100C0E0D0E0CE010E94761F80
:1002A0002196C631D105BCF7F8CF089778F477FDD1
:1002B0000DC06830710554F457FD08C090E0483017
:1002C00051050CF091E081E0982701C090E0892F62
:1002D0000895FF920F931F93CF93DF93F82E8B0116
:1002E000EA010E9455018823A9F0FE0183E0EE0F88
:1002F000FF1F8A95E1F7E00FF11FEB59FF4F2081B7
:1003000081E090E002C0880F991FFA94E2F780958F
:1003100082238083DF91CF911F910F91FF900895E9
:10032000FF920F931F93CF93DF93F82E8B01EA0177
:100330000E9455018823A9F0FE0193E0EE0FFF1FF4
:100340009A95E1F7E00FF11FEB55FF4F208181E017
:1003500090E002C0880F991FFA94E2F780958223FB
:100360008083DF91CF911F910F91FF900895FF92AD
:100370000F931F93CF93DF93F82E8B01EA010E9416
:1003800055018823A1F0FE0123E0EE0FFF1F2A95FF
:10039000E1F7E00FF11FEB59FF4F208181E090E082
:1003A00002C0880F991FFA94E2F7282B2083DF916F
:1003B000CF911F910F91FF900895FF920F931F937C
:1003C000CF93DF93F82E8B01EA010E945501882319
:1003D000A1F0FE0133E0EE0FFF1F3A95E1F7E00FC9
:1003E000F11FEB55FF4F208181E090E002C0880FA4
:1003F000991FFA94E2F7282B2083DF91CF911F9168
:100400000F91FF900895FF920F931F93CF93DF9367
:10041000F82E8B01EA010E945501882389F043E000
:10042000CC0FDD1F4A95E1F7C00FD11FCB55DF4F31
:10043000888190E002C095958795FA94E2F78170E3
:10044000DF91CF911F910F91FF90089521303105D9
:1004500019F40E94DD0108950E9490010895FF9211
:100460000F931F93CF93DF93F82E8B01EA010E9425
:1004700055018823A1F0FE0153E0EE0FFF1F5A95AE
:10048000E1F7E00FF11FEB55FF4F208181E090E095
:1004900002C0880F991FFA94E2F728272083DF9182
:1004A000CF911F910F91FF900895CF93DF93FC019F
:1004B000DA01E901681779071CF4CB01BF01FC01DF
:1004C000ED93FC9379836883DF91CF910895883011
:1004D000910598F420E030E063E0880F991F6A9559
:1004E000E1F74FEFFC01E20FF31FEB55FF4F4083A5
:1004F0002F5F3F4F28303105A9F7089588309105C7
:1005000090F420E030E073E0880F991F7A95E1F7CE
:10051000FC01E20FF31FEB55FF4F10822F5F3F4F9F
:1005200028303105A9F708959C018830910530F5F0
:1005300081E090E002C0880F991F2A95E2F7982F7A
:1005400040E050E012C0FB01E20FF31FEB55FF4FFC
:100550008081892B80832F5F3F4F2830310599F7A9
:100560004F5F5F4F4830510549F020E030E0BA015D
:10057000E3E0660F771FEA95E1F7E5CF08959C0168
:100580008830910538F581E090E002C0880F991F0E
:100590002A95E2F7982F909540E050E012C0FB01B9
:1005A000E20FF31FEB55FF4F8081892380832F5F7C
:1005B0003F4F2830310599F74F5F5F4F4830510565
:1005C00049F020E030E0BA01F3E0660F771FFA95BA
:1005D000E1F7E5CF08958830910598F420E030E008
:1005E0004FEFF901A3E0EE0FFF1FAA95E1F7E80F27
:1005F000F91FEB55FF4F40832F5F3F4F28303105E8
:1006000081F708958830910590F420E030E0F901F9
:10061000B3E0EE0FFF1FBA95E1F7E80FF91FEB55B6
:10062000FF4F10822F5F3F4F2830310581F708952B
:10063000893749F08A37F9F08837A1F5862F90E09D
:100640000E949402089570E06830710558F520E02A
:1006500030E08FEFF90193E0EE0FFF1F9A95E1F77D
:10066000E60FF71FEB55FF4F80832F5F3F4F28307A
:10067000310581F7089570E06830710598F420E045
:1006800030E083E0660F771F8A95E1F78FEFFB017B
:10069000E20FF31FEB55FF4F80832F5F3F4F283052
:1006A0003105A9F70895893749F08A37F1F088377D
:1006B00091F5862F90E00E94BF02089570E06830A7
:1006C000710548F520E030E0F90153E0EE0FFF1F1F
:1006D0005A95E1F7E60FF71FEB55FF4F10822F5F9A
:1006E0003F4F2830310581F7089570E0683071057B
:1006F00090F420E030E043E0660F771F4A95E1F781
:10070000FB01E20FF31FEB55FF4F10822F5F3F4FAE
:1007100028303105A9F7089540E050E010C0FB01F2
:10072000E20FF31FEB55FF4F80832F5F3F4F2830C1
:100730003105A9F74F5F5F4F4830510549F020E080
:1007400030E0BA01E3E0660F771FEA95E1F7E7CF03
:10075000089540E050E010C0FB01E20FF31FEB5999
:10076000FF4F80832F5F3F4F28303105A9F74F5F40
:100770005F4F4830510549F020E030E0BA01F3E026
:10078000660F771FFA95E1F7E7CF0895EF92FF9292
:100790000F931F93CF93DF93DC01EB01F90128172F
:1007A000390714F4D901FC010C171D071CF4CE0104
:1007B000E8018C01E416F5061CF4CA01A7017C01CE
:1007C00031968FEF90E09C0102C0220F331FEA9513
:1007D000E2F7209502C0880F991FAA95E2F7282317
:1007E0000EC0FB01EA0FFB1FEB55FF4F8081822BF0
:1007F000808311960A171B07A4F74F5F5F4FE4161B
:10080000F50644F0DE01BA0183E0660F771F8A9592
:10081000E1F7F0CFDF91CF911F910F91FF90EF9013
:100820000895CF92DF92EF92FF920F931F93CF9391
:10083000DF93DC01F9012817390714F4D901FC0111
:10084000061717071CF4CB01B8018C01E416F50656
:100850001CF4CA01A7017C0181E090E09C010E2EEE
:1008600002C0220F331F0A94E2F70A2E02C0880F3B
:10087000991F0A94E2F7C22EC82A31968FEF90E0B2
:100880009C0102C0220F331FEA95E2F7D22ED094CA
:1008900002C0880F991FAA95E2F7D8229A0121C0B9
:1008A000A617B70749F0A017B10731F0241735078D
:1008B00019F02E153F0539F4FE01EA0FFB1FEB5529
:1008C000FF4FD08208C0FE01EA0FFB1FEB55FF4F20
:1008D00080818C29808311960A171B070CF72F5FE4
:1008E0003F4FE216F30644F0DB01E90193E0CC0F41
:1008F000DD1F9A95E1F7F0CFDF91CF911F910F9116
:10090000FF90EF90DF90CF9008956F927F928F923B
:100910009F92AF92BF92CF92DF92EF92FF920F938E
:100920001F93CF93DF933C014B015A0169012817B4
:10093000390714F439016C01081519051CF4C401B8
:1009400048018C01EA14FB041CF4C50157017C0129
:100950000894C11CD11C8FEF90E09C010C2C02C0AC
:10096000220F331F0A94E2F70894C108D10820959A
:10097000062C02C0880F991F0A94E2F72823D5019C
:1009800043E0AA0FBB1F4A95E1F7FD01E80DF91DF1
:10099000EB55FF4F2083A00FB11FAB55BF4F2C93DA
:1009A000D70133E0AA0FBB1F3A95E1F7FD01E80D2F
:1009B000F91DEB55FF4F2083A00FB11FAB55BF4F63
:1009C0002C93E40115C0C301BE01A5010E94DD0105
:1009D000C301BE01A7010E94DD01C601BE01A50140
:1009E0000E94DD01C601BE01A7010E94DD01219622
:1009F0000C171D0744F7E50115C0C301B401AE0192
:100A00000E94DD01C301B801AE010E94DD01C601F3
:100A1000B401AE010E94DD01C601B801AE010E9421
:100A2000DD012196EC16FD0644F7DF91CF911F9171
:100A30000F91FF90EF90DF90CF90BF90AF909F907D
:100A40008F907F906F9008956F5F7F4F2FEF30E012
:100A5000A90102C0440F551F6A95E2F7BA016095DB
:100A600002C0220F331F8A95E2F7862F8223089552
:100A7000482F282F30E0829586958270942F991FF9
:100A80009927991F892B942F9695969596959470F2
:100A9000892B46954870842B220F331F922F90711B
:100AA000892B220F331F220F331F922F9072892B15
:100AB000220F331F220F331F922F9074892B220F86
:100AC000331F220F331F822B08952F923F924F9294
:100AD0005F926F927F928F929F92AF92BF92CF92CE
:100AE000DF92EF92FF920F931F93DF93CF93CDB7D7
:100AF000DEB72C970FB6F894DEBF0FBECDBF281B14
:100B0000390B061B170BE41AF50A37FD05C0A1E0E7
:100B1000B0E0BA87A98704C0EFEFFFEFFA87E98753
:100B20003C872B8737FF05C0309521953F4F3C8789
:100B30002B8717FD05C021E030E038872F8304C0E4
:100B4000AFEFBFEFB887AF8317FF03C010950195D4
:100B50001F4FF7FC05C0E1E0F0E0FE83ED8304C029
:100B60002FEF3FEF3E832D83F7FE04C0F094E19416
:100B7000F108F394AB85BC85AA0FBB1FBC83AB8384
:100B8000F801EE0FFF1FFA83E9831701220C331CD3
:100B90002B853C85201731070CF444C02E153F05EA
:100BA000DCF17F01E21AF30A8101021B130B3C0105
:100BB0004A015B014424552428C0C301B501A401A6
:100BC0000E94DD011E141F0444F48F819885A80E35
:100BD000B91EAB81BC81EA1AFB0A1016110644F457
:100BE000ED81FE818E0E9F1E2B813C81021B130B1B
:100BF00089819A81E80EF91E020D131D0894411C8B
:100C0000511CA985BA856A0E7B1E6301EB85FC85A4
:100C10004E165F0694F290C02B853C850217130791
:100C20000CF448C00E151F050CF444C0EB80FC808A
:100C3000E01AF10AD101A01BB10BBC87AB873B01C5
:100C40004A016C014424552430C0C601B301A401FB
:100C50000E94DD011E141F0444F4E985FA85CE0EBE
:100C6000DF1E29813A81E21AF30A8B859C851816CA
:100C7000190654F4AD81BE818A0E9B1EE981FA816A
:100C80008E1B9F0B9C878B872B813C81E20EF31E72
:100C90008B859C85820D931D9C878B870894411CB6
:100CA000511CAF81B8856A0E7B1E53014016510658
:100CB00064F242C009811A810E191F09EB81FC817F
:100CC000EE19FF09FC87EB873A015B016C014424B4
:100CD00055242EC0C601B501A3010E94DD011016E6
:100CE000110634F42F813885A20EB31E02191309A0
:100CF0008B859C851816190644F4A985BA85CA0EF9
:100D0000DB1E821993099C878B87E981FA810E0F7C
:100D10001F1F2B853C858B819C81280F391F3C87A9
:100D20002B870894411C511CAD81BE816A0E7B1E2D
:100D300043014E145F0474F2C601B501A4010E9480
:100D4000DD012C960FB6F894DEBF0FBECDBFCF915C
:100D5000DF911F910F91FF90EF90DF90CF90BF90A8
:100D6000AF909F908F907F906F905F904F903F904B
:100D70002F9008950BC020E000000000000000004C
:100D8000000000002F5F2A35B9F70197009799F707
:100D900008952F923F924F925F926F927F929F920F
:100DA000AF92BF92CF92DF92EF92FF920F931F9379
:100DB000CF93DF93982E5B01CC24DD2447E0242ED3
:100DC000312C8FEFA8168FEFB80611F4760103C00F
:100DD0007101EC18FD0800E010E0270108944108BB
:100DE000510837010894611C711C3AC08FEFA81696
:100DF0008FEFB80611F4C30101C0C201AC018AE74C
:100E0000981649F4C801BE010E940302282FC801A8
:100E1000BE01A70119C089E7981651F4C801BA01AB
:100E2000AE010E940302282FC801B701AE010CC019
:100E300088E7981661F4CA01BE01A8010E94030266
:100E4000282FC701BE01A80130E00E94260221968A
:100E5000C830D10559F60F5F1F4F0830110519F042
:100E6000C0E0D0E0C3CF0894C11CD11C88E0C816F4
:100E7000D10409F0A6CF8FEFA8168FEFB80619F0AE
:100E8000EE24FF2403C037E0E32EF12C00E010E055
:100E90001FC08AE7981621F4C801BE01A7010DC042
:100EA00089E7981621F4C801B701AE0106C088E7AA
:100EB000981629F4C701BE01A8010E94900121964D
:100EC000C830D10531F70F5F1F4F0830110519F0F9
:100ED000C0E0D0E0DECFDF91CF911F910F91FF9066
:100EE000EF90DF90CF90BF90AF909F907F906F90EA
:100EF0005F904F903F902F9008952F923F924F9286
:100F00005F926F927F928F929F92AF92BF92CF9299
:100F1000DF92EF92FF920F931F93DF93CF9300D056
:100F200000D000D0CDB7DEB79A8389837C836B83F2
:100F30001A0161E0662E712C621A730A29011E8261
:100F40001D8267C089809A80840C951CEB80FC8090
:100F50008D819E81E80EF91EC401B701A1010E9496
:100F6000DD01A980BA80ED81FE81AE0EBF1ECB806F
:100F7000DC80C40CD51CC501B601A1010E94DD01B5
:100F800009811A8104191509C801B701A1010E943C
:100F9000DD01E980FA808D819E81E81AF90AC70196
:100FA000B601A1010E94DD01CB80DC80ED81FE81D4
:100FB000CE1ADF0AC801B601A1010E94DD010B8132
:100FC0001C8104191509C701B801A1010E94DD01A6
:100FD000C401B601A1010E94DD01C501B801A10152
:100FE0000E94DD018D819E8101969E838D8377FE17
:100FF00004C00894611C711C08C008944108510881
:101000008D819E81019684199509880F991F680E1C
:10101000791EED81FE814E165F060CF093CF269669
:101020000FB6F894DEBF0FBECDBFCF91DF911F91F9
:101030000F91FF90EF90DF90CF90BF90AF909F9077
:101040008F907F906F905F904F903F902F9008957A
:101050000895CF93DF93EA01DB01FC0120E030E04B
:1010600006C08D919D91819391932F5F3F4F2C17D7
:101070003D07BCF3DF91CF910895DF93CF93CDB7B8
:10108000DEB7C054D0400FB6F894DEBF0FBECDBF60
:10109000DE011196E5EAF0E080E401900D928150C6
:1010A000E1F740E050E0BE016F5F7F4F18C08C91C8
:1010B000F90193E0EE0FFF1F9A95E1F7E40FF51F9A
:1010C000EB55FF4F80831896215030408FEF2F3F14
:1010D000380769F74F5F5F4F4830510531F0DB014A
:1010E000A40FB51F27E030E0E2CFC05CDF4F0FB6A2
:1010F000F894DEBF0FBECDBFCF91DF9108958F92E0
:101100009F92AF92BF92CF92DF92EF92FF920F9396
:101110001F93DF93CF93CDB7DEB7C054D0400FB647
:10112000F894DEBF0FBECDBFDE011196E5EAF0E018
:1011300080E401900D928150E1F70E948C03EE242F
:10114000FF244E010894811C911C17C0F601819167
:101150006F010E943805F501E00FF11FEB55FF4FBD
:1011600080830F5F1F4F0830110581F70894E11C41
:10117000F11CF8E0EF16F10469F0C70123E0880FD5
:10118000991F2A95E1F76401C80ED91E00E010E00E
:101190005C01DCCFC05CDF4F0FB6F894DEBF0FBE42
:1011A000CDBFCF91DF911F910F91FF90EF90DF9016
:1011B000CF90BF90AF909F908F9008958F929F9205
:1011C000AF92BF92CF92DF92EF92FF920F931F9355
:1011D000DF93CF93CDB7DEB7C054D0400FB6F894AD
:1011E000DEBF0FBECDBFDE011196E5EAF0E080E480
:1011F00001900D928150E1F70E948C03AA24BB2438
:101200004E010894811C911C2AC0F701808190E056
:10121000002E02C0959587950A94E2F780FF05C0DD
:10122000C801B601A5010E94DD010F5F1F4F083004
:10123000110559F70894E11CF11C0894C108D10864
:10124000FFEFCF16FFEFDF0619F000E010E0DDCF73
:101250000894A11CB11C88E0A816B10461F07501C6
:1012600043E0EE0CFF1C4A95E1F7E80CF91C37E06F
:10127000C32ED12CEACFC05CDF4F0FB6F894DEBF8F
:101280000FBECDBFCF91DF911F910F91FF90EF90D7
:10129000DF90CF90BF90AF909F908F900895A5EA78
:1012A000B0E0E5E6F0E080E401900D928150E1F7D6
:1012B0000895DF92EF92FF920F931F93CF93DF93E6
:1012C0008C0180E00E948C03C0E0D0E0DD24DA9441
:1012D000780111C0F901E80FF91FEB55FF4FD082DB
:1012E000019688309105B1F7C7010E94BA06219690
:1012F000C830D10549F080E090E09E0163E0220F04
:10130000331F6A95E1F7E6CFC801880F991F800F58
:10131000911F0E94BA06C0E0D0E011C0F901E80FA9
:10132000F91FEB55FF4F1082019688309105B1F7F8
:10133000C7010E94BA062196C830D10549F080E065
:1013400090E09E0143E0220F331F4A95E1F7E6CF7C
:10135000DF91CF911F910F91FF90EF90DF90089553
:10136000CF93DF93EC01DC0120E030E014C0A83023
:10137000B10574F4283031055CF4FD0173E0EE0F23
:10138000FF1F7A95E1F7E20FF31FEB55FF4F6083E4
:101390002F5F3F4F1197C217D3074CF7CA010E9426
:1013A000BA06CE01DF91CF9108950F931F93CF938B
:1013B000DF938B01EA01892B51F080E190E0BE01BF
:1013C000A8010E94B009019797FFF9CF0AC080E0F9
:1013D00090E0BE01A8010E94B009019680319105FC
:1013E000C4F3DF91CF911F910F910895CF92DF92B7
:1013F000EF92FF920F931F93CF93DF93EC016B015A
:101400007A0180E00E948C0300E010E019C080E0C7
:101410000E948C03CE010E94BA068FEF0E948C03BB
:10142000C6010E94BA06CE0166EF7FEF0E94282116
:1014300088EE93E00E9428216F507040C60FD71F9E
:101440001C161D0624F3C7010E94BA060F5F1F4F2A
:1014500002301105A9F7DF91CF911F910F91FF90F5
:10146000EF90DF90CF9008952F923F92EF92FF92EE
:101470000F931F93CF93DF937C018B01E10180E0F9
:101480000E948C03C8010E94BA061D861C8622C0D9
:10149000AA85BB85C901880F991F8A0F9B1F2F5FE3
:1014A0003F4FF901EE0FFF1FEA0FFB1F60817181B3
:1014B0002F5F3F4F220F331FA20FB31F4D915C913F
:1014C000FC01808191810E94DD018C859D850396C0
:1014D0009D878C872C853D858985992787FD9095EB
:1014E00028173907A8F2C7010E94BA06DF91CF91E9
:1014F0001F910F91FF90EF903F902F9008952F92A2
:101500003F92FF920F931F93CF93DF93F82E8101A9
:10151000F101C285D385888199816A817B814C8163
:101520005D8101960E945501882361F0888199812F
:101530006A817B814C815D8101960E940302882330
:1015400009F47AC0888199816A817B814C815D81AF
:1015500001970E945501882361F0888199816A81F1
:101560007B814C815D8101970E940302882309F4ED
:1015700063C06A817B816F5F7F4F4C815D81888111
:1015800099810E945501882369F06A817B816F5F90
:101590007F4F4C815D81888199810E94030288235D
:1015A00009F44AC06A817B81615070404C815D8141
:1015B000888199810E945501882361F06A817B812D
:1015C000615070404C815D81888199810E94030245
:1015D000882391F16A817B814C815D814F5F5F4FF0
:1015E000888199810E945501882361F06A817B81FD
:1015F0004C815D814F5F5F4F888199810E9403021A
:101600008823D1F06A817B814C815D8141505040BB
:10161000888199810E945501882309F4EDC06A816F
:101620007B814C815D8141505040888199810E942D
:101630000302882309F0E0C022242A94332433943F
:10164000E801AA85BB850D80DE81C02DE1E0FE1694
:10165000F9F4F80187819085FC013397EE0FFF1FA5
:10166000EA0FFB1F20813181398328830297FC0117
:10167000EE0FFF1FEA0FFB1F208131813B832A837E
:101680000196880F991FA80FB91F8D919C910FC0CB
:101690008D919C9111979983888312968D919C913D
:1016A00013979B838A8314968D919C9115979D83A4
:1016B0008C830E94A02163E070E00E942821E80151
:1016C0008C830E94A02180FF02C03B8202C0F801EF
:1016D0002382E801AD81BE818C81E82FF0E0EE0F1E
:1016E000FF1FEA0FFB1F90818B81980F9B8398301F
:1016F00008F0A6CF892F992787FD90959183808345
:1017000012966D917C91139714964D915C9115975B
:101710008D919C910E940302882309F091CFE1E012
:10172000FE1621F58F8198854D815E81AA85BB8546
:10173000FC01EE0FFF1FEA0FFB1FEA012881398130
:10174000318320830196FC01EE0FFF1FEA0FFB1F80
:101750002A813B81318320830196880F991FA80F2E
:10176000B91F8C819D818D939C934FC0F80112828B
:101770004FEF5FEF23C0E80189858150898313C053
:10178000822F90E0FC01EE0FFF1FEA0FFB1F019775
:10179000880F991FA80FB91F8D919C919183808309
:1017A0002150F8012183E8012981AA85BB852223E4
:1017B00039F74D935C938A818F5F8A83F801828128
:1017C0008330C8F2128213C0822F90E0E801AA850C
:1017D000BB85880F991FA80FB91FED81FE81E80F07
:1017E000F91F808191818D939C932F5F2A83F8014B
:1017F0002281233048F309C0180180ED97E060EDA5
:1018000077E00E94340AE8011882DF91CF911F919E
:101810000F91FF903F902F9008952F923F926F92DB
:101820007F928F929F92AF92BF92CF92DF92EF9270
:10183000FF921F93DF93CF93CDB7DEB72E970FB6EE
:10184000F894DEBF0FBECDBF4C015B016DB67EB616
:1018500081E089830E94A0216BE070E00E94282132
:101860009C01220F331F280F391F225E2A87822FE7
:10187000992787FD9095880F991F2DB73EB7281B94
:10188000390B0FB6F8943EBF0FBE2DBF2F5F3F4FF1
:101890003C872B872DB73EB7281B390B0FB6F89422
:1018A0003EBF0FBE2DBF8DB79EB701969F838E831F
:1018B000EE24FF246E010894C11CD11C44C0E11425
:1018C000F10429F0160182E00E947F0A33C01986D4
:1018D000188624C0232BC9F41A8213C00E94A021A9
:1018E000EB85FC85212F30E0220F331FE20FF31F21
:1018F00068E070E00E942821918380838A818F5F55
:101900008A831A81133050F304C0160181E00E94CB
:101910007F0A8885998503969987888728853985E0
:101920008A85992787FD9095281739071CF48981A6
:10193000882381F61601C40160E070E00E94340A39
:101940000894E11CF11CEA14FB0424F48981882327
:1019500009F0B5CF0FB6F8947EBE0FBE6DBE2E96C1
:101960000FB6F894DEBF0FBECDBFCF91DF911F91B0
:10197000FF90EF90DF90CF90BF90AF909F908F90AF
:101980007F906F903F902F9008953F924F925F927B
:101990006F927F928F929F92AF92BF92CF92DF927F
:1019A000EF92FF920F931F93DF93CF9300D000D05D
:1019B00000D0CDB7DEB79A8389837C836B8311E037
:1019C000442455248BC00E94A02168E070E00E944E
:1019D0002821982E8117B9F3882475C0832D992763
:1019E00087FD9095A7E0CA2ED12CC81AD90A1E826D
:1019F0001D82F7E0EF2EF12C3C014CC0992041F400
:101A0000C3012D813E81821B930BB801A90134C013
:101A100031E0931611F4C60128C082E0981619F43B
:101A2000C601B80127C093E0991641F4C301ED81C6
:101A3000FE818E1B9F0BB501AF011EC0F4E09F1607
:101A400031F4C3012D813E81821B930B04C035E02C
:101A5000931619F4C601B80109C086E0981641F43E
:101A6000C301ED81FE818E1B9F0BB501A70104C050
:101A7000C601B5014D815E810E94DD012D813E814F
:101A80002F5F3F4F3E832D830894C11CD11C0894C7
:101A9000E108F108832D3D81831B87FFAFCF0F5FE6
:101AA0001F4F3A940894A108B10880160CF096CF05
:101AB00089819A810E94BA0680E00E948C038394F7
:101AC00086E1881639F0382C00E010E0E7E0AE2E11
:101AD000B12C84CF0894411C511C192DEB81FC8141
:101AE0004E165F060CF46FCF26960FB6F894DEBF45
:101AF0000FBECDBFCF91DF911F910F91FF90EF905F
:101B0000DF90CF90BF90AF909F908F907F906F901D
:101B10005F904F903F9008952F923F924F925F9227
:101B20006F927F928F929F92AF92BF92CF92DF92ED
:101B3000EF92FF920F931F93DF93CF93CDB7DEB752
:101B400065970FB6F894DEBF0FBECDBF9987888723
:101B50007B876A8721E02E831C821B82F7C00E944C
:101B6000A02164E070E00E94282112E0B12EB80E9E
:101B70000E94A02164E070E00E942821B2E0EB2ED8
:101B8000E80E0E94A02165E070E00E942821F82E56
:101B9000382F3D5F3F8388249924CB2CDD24C7FC5C
:101BA000D0940E2D112707FD10950FC0C601B80166
:101BB000A4010E94DD018A859B850E94BA0680E00F
:101BC0000E948C030894811C911C8F81881674F3E9
:101BD00000E010E09F2D9B5F988B8F5F898BEF2D2E
:101BE000E95FEA8BFF81FE5FFB8BAB2CBB24A7FC7C
:101BF000B094CE2CDD24C7FCD09482C080E00E943B
:101C00008C031C862E81222311F431E03C878C85C5
:101C10008E83EE24EE2089F4002329F093E0F91658
:101C200011F04F8101C04989EE85E23008F44B89FB
:101C3000F4E0FF15D4F44F8518C021E0E21649F412
:101C4000F21611F4498911C032E03F156CF44D854C
:101C50000CC082E0E81621F4023034F04A8105C05D
:101C6000002311F0498101C04F81E42FFF27E7FDD8
:101C7000F095FD8BEC8BFC85FF23A9F4C301B60125
:101C80004C895D890E94DD01C501B4014C895D89E3
:101C90000E94DD01C101B4014C895D890E94DD0112
:101CA000C301B40114C0C101B6014C895D890E9411
:101CB000DD01C501B2014C895D890E94DD01C301CE
:101CC000B2014C895D890E94DD01C101B2014C89DC
:101CD0005D890E94DD01E39424E0E21609F09ACFC9
:101CE0003D8131503D838A859B850E94BA068D8156
:101CF000882309F083CF0F5F1F4F0830110509F1CA
:101D0000802F880F9889981B9A83EF81E81BE983BD
:101D1000F2E0FD83F02E2889201B2D87302F3150D3
:101D20003E878A89801B8F8718012A0C3B1C28015B
:101D30004C0C5D1C3501601A710A4601801A910A2B
:101D40005DCFEB81FC813196FC83EB832B813C8161
:101D500088859985281739070CF401CF65960FB649
:101D6000F894DEBF0FBECDBFCF91DF911F910F91D1
:101D7000FF90EF90DF90CF90BF90AF909F908F90AB
:101D80007F906F905F904F903F902F9008956F924B
:101D90007F928F929F92AF92BF92CF92DF92EF92FB
:101DA000FF920F931F93CF93DF933C014B015A0196
:101DB000CC24DD242CC00E94A0218C010E94A021F3
:101DC0007C010E94A021FC01C80168E070E00E9433
:101DD00028218C01C70168E070E00E9428219C0145
:101DE000CF0168E070E00E942821AC01C801B90170
:101DF0000E94DD0121968C169D06ECF6C5010E941D
:101E0000BA0680E00E948C030894C11CD11CC61441
:101E1000D7041CF4C0E0D0E0EECFDF91CF911F914A
:101E20000F91FF90EF90DF90CF90BF90AF909F9079
:101E30008F907F906F900895EF92FF920F931F9372
:101E4000CF93DF937C018B01C1E0D0E0C701BE01DD
:101E5000A8010E94C70E2196C431D105B9F7C70168
:101E6000BE01A8010E94C70E2197C9F7DF91CF914B
:101E70001F910F91FF90EF9008954F925F926F9294
:101E80007F929F92AF92BF92CF92DF92EF92FF929A
:101E90000F931F93CF93DF93982E162F072F3A019E
:101EA00080E00E948C03212F302FC9016C01C0E01B
:101EB000D0E007E0402E512C35C06114710431F0A0
:101EC000F5018081A201481B510904C0F7018081FE
:101ED000482F50E0FAE79F1619F4CE01B8010DC063
:101EE00089E7981621F4CE01BA01A80106C098E747
:101EF000991629F4CA01B801AE010E94DD010F5FF5
:101F00001F4F0894A11CB11C0894E11CF11C08305F
:101F1000110599F62196E8E0F0E0CE0EDF1EC830FC
:101F2000D10529F05601760100E010E0C6CFDF911F
:101F3000CF911F910F91FF90EF90DF90CF90BF90C6
:101F4000AF909F907F906F905F904F9008952F92E9
:101F50003F924F925F926F927F928F929F92AF9239
:101F6000BF92CF92DF92EF92FF920F931F93DF9376
:101F7000CF93CDB7DEB7C158D0400FB6F894DEBFCF
:101F80000FBECDBFCF57DF4F8883C158D0402B0144
:101F90003A01490191E4A92EB12CAC0EBD1EF50108
:101FA00081E8C82ED12CCC0EDD1E1192EC15FD055A
:101FB000E1F700E010E01E010894211C311C81E0D3
:101FC00088169104C9F414C00E94A02160E470E056
:101FD0000E942821E1E4F0E0EC0FFD1FE80FF91F5B
:101FE0008081882389F70F5F1F4F91E0908316C08F
:101FF000003411054CF312C082E08816910471F48C
:10200000003411055CF4E1E4F0E0EC0FFD1FE00F9B
:10201000F11F80818F5F80830F5F1F4FF501EE24DA
:10202000FF249081892F8150863010F49F5F908328
:102030008081873019F40894E11CF11C3196EC156D
:10204000FD0579F7D101F50180814114510419F0A2
:1020500097E0981B892F8C9331961196EC15FD050E
:1020600099F7C3010E94BA06CF57DF4F8881C15844
:10207000D040B10140E050E00E943D0F80E4E816FE
:10208000F10409F09CCFCF57DF4F0FB6F894DEBFB5
:102090000FBECDBFCF91DF911F910F91FF90EF90B9
:1020A000DF90CF90BF90AF909F908F907F906F9078
:1020B0005F904F903F902F9008953F924F925F9284
:1020C0006F927F928F929F92AF92BF92CF92DF9248
:1020D000EF92FF920F931F93DF93CF93CDB7DEB7AD
:1020E000C058D0400FB6F894DEBF0FBECDBF382E1B
:1020F0002B014A01390100E010E06E010894C11C77
:10210000D11C31E4E32EF12CEC0EFD1EF601E00FA4
:10211000F11F10820E94A021F701E00FF11F68E07B
:1021200070E00E94282180830F5F1F4F003411054B
:1021300069F7EE24FF245E010894A11CB11C21E480
:10214000C22ED12CCC0EDD1E1CC0D8019C918081EA
:10215000981710F49F5F9C930F5F1F4F31960C15DB
:102160001D0599F7832DB501A3010E943D0FC20102
:102170000E94BA060894E11CF11CB8E0EB16F104C9
:1021800019F08501F601E1CFF80127E0CE018F5764
:102190009F4F2193E817F907E1F7C4010E94BA069F
:1021A000EE24FF244E010894811C911C1FC08081E5
:1021B0009C91891710F48F5F80838081981710F4A9
:1021C0008150808331961196E017F10781F7832DB6
:1021D000B401A3010E943D0FC2010E94BA060894F7
:1021E000E11CF11C88E0E816F10419F0F501D601B4
:1021F000DECFC058DF4F0FB6F894DEBF0FBECDBFA5
:10220000CF91DF911F910F91FF90EF90DF90CF90D2
:10221000BF90AF909F908F907F906F905F904F9006
:102220003F900895AC01DC01FB0120E030E09C917F
:102230008081981710F49F5F9C939C9180818917EF
:1022400010F491509C932F5F3F4F1196319620349C
:10225000310569F78AE7BA0140E050E00E943D0F7E
:1022600008952F923F924F925F926F927F928F923A
:102270009F92AF92BF92CF92DF92EF92FF920F9315
:102280001F93DF93CF93CDB7DEB7C058D0400FB6C2
:10229000F894DEBF0FBECDBF2C017B0100E010E043
:1022A0005E010894A11CB11CE4E09E2E71E4C72ECF
:1022B000D12CCC0EDD1EF501E00FF11F90820E94A3
:1022C000A021F601E00FF11F68E070E00E942821D4
:1022D00080830F5F1F4F0034110569F700E010E0A5
:1022E00061E4A62EB12CAC0EBD1E6E010894C11C7B
:1022F000D11C3701C601B5014AE70E941211C30182
:102300000E94BA060F5F1F4F0830110599F7570159
:10231000AA0CBB1CAA0CBB1CCC24DD2441E4842EDB
:10232000912C8C0E9D1E1E010894211C311C32C064
:1023300000E010E0C101B4014AE70E941211C3019C
:102340000E94BA060F5F1F4F0830110599F7C501AB
:102350000E94BA06EE24FF240E94A0218C010E9454
:10236000A0219C01C80160E470E00E942821F401D2
:10237000E80FF91FC90168E070E00E9428218083FE
:102380000894E11CF11C80E2E816F10429F7089496
:10239000C11CD11CC414D5045CF2C058DF4F0FB669
:1023A000F894DEBF0FBECDBFCF91DF911F910F918B
:1023B000FF90EF90DF90CF90BF90AF909F908F9065
:1023C0007F906F905F904F903F902F9008952F9245
:1023D0003F924F925F926F927F928F929F92AF92B5
:1023E000BF92CF92DF92EF92FF920F931F93CF9302
:1023F000DF932C011B01220C331C662477247DC043
:10240000C114D104A1F48114910439F4C80160E02D
:1024100070E0AE010E94DD0106C0C80160E070E01E
:10242000AE010E949001C2010E94BA0640C081E044
:10243000C816D10459F48114910421F487E090E086
:10244000B5010EC087E090E0B50111C082E0C8166A
:10245000D104B9F48114910439F4C70167E070E044
:10246000AE010E94DD0106C0C70167E070E0AE0169
:102470000E949001C2010E94BA0606301105B9F40B
:1024800022C08114910439F480E090E0B701AE01DC
:102490000E94DD0106C080E090E0B701AE010E941D
:1024A0009001C2010E94BA060530110561F00F5F6C
:1024B0001F4F0894A11CB11C0894E108F1080830D2
:1024C000110509F09DCF0894C11CD11C84E0C816E9
:1024D000D10449F000E010E0B1E0AB2EB12CA6E051
:1024E000EA2EF12C8DCF2196C830D10519F0CC24DD
:1024F000DD24F0CF0894611C711C6214730444F451
:10250000C0E0D0E0F1E08F2E912C86209720EFCF15
:10251000DF91CF911F910F91FF90EF90DF90CF90BF
:10252000BF90AF909F908F907F906F905F904F90F3
:102530003F902F9008953F924F925F926F927F92BB
:102540008F929F92AF92BF92CF92DF92EF92FF92C3
:102550000F931F93CF93DF93382E492E3B014A01EF
:10256000C22E502EDD241EC0552031F0CE01B70101
:10257000A5010E94DD0105C0CE01B701A5010E94A1
:1025800090011F5F21961C1578F30F5F0C1548F41E
:10259000832D942D9C01E90110E07301E00EF11CE4
:1025A000F2CFD394DC1428F400E05401AD0CB11C3C
:1025B000EDCFDF91CF911F910F91FF90EF90DF90C2
:1025C000CF90BF90AF909F908F907F906F905F90D3
:1025D0004F903F9008952F923F924F925F926F924B
:1025E0007F928F929F92AF92BF92CF92DF92EF92A3
:1025F000FF920F931F93DF93CF93CDB7DEB7299749
:102600000FB6F894DEBF0FBECDBF9D838C837F8352
:102610006E8380E00E948C03198618861B8224E05A
:102620002A831982222454E0352E44E0442E552476
:10263000662434E0732E9924939488248394AA24E6
:10264000A39485C188859985181619060CF0E7C0F2
:102650000E94A02163E070E00E942821982E881635
:10266000B9F30E94A02166E070E00E942821E82EC4
:10267000A816B9F3992021F4FB80022D152D0AC06C
:1026800091E0991621F0F980042D172D03C0FA80EE
:10269000032D162DEE20E9F48F2D992787FD9095B7
:1026A000602F772767FD7095412F552747FD50957F
:1026B00005960E940302882309F0A9C0E3E0EF1504
:1026C0000CF4A5C0892CAA24BB24B394CC24DD240B
:1026D000AAC0F1E0EF16E9F4602F772767FD709547
:1026E00061507040412F552747FD50958F2D9927F8
:1026F00087FD90950E940302882309F088C0101678
:102700000CF085C0892CAA24A394BB24CC24C394A8
:1027100088C022E0E216E9F48F2D992787FD909575
:10272000602F772767FD7095412F552747FD5095FE
:1027300001970E940302882309F069C01F140CF05E
:1027400066C0892C22E0A22EBB24CC24DD24D394A5
:1027500069C033E0E316F9F4602F772767FD7095C1
:102760006B5F7F4F412F552747FD50958F2D992740
:1027700087FD90950E940302882309F048C0043029
:102780000CF045C0892C93E0A92EBB24CC24DD2479
:10279000EE24E39448C084E0E816F1F4602F772734
:1027A00067FD7095412F552747FD5095415050408A
:1027B0008F2D992787FD90950E940302882339F574
:1027C00011162CF5892C84E0A82EBB24CC24DD2402
:1027D000EE24FF24F39428C095E0E916C1F4602F9D
:1027E000772767FD7095412F552747FD50954B5F23
:1027F0005F4F8F2D992787FD90950E9403028823B4
:1028000031F4143024F4892C05E0A02E08C0E885AA
:10281000F9853197F987E887892CAE2C93C0BB24C2
:10282000CC24DD24EE24FF2413E084E0811B2885E2
:102830003985121613060CF046C09920B1F4BB205E
:1028400011F08B8340C0CC2011F0212E3CC0DD2044
:1028500011F01B8338C0EE2011F0282E34C0FF2069
:1028600011F4582E30C0512E2EC031E09316B1F421
:10287000BB2011F08A8327C0CC2011F0312E23C059
:10288000DD2011F01A831FC0EE2011F0382E1BC07E
:10289000FF2011F4682E17C0612E15C0BB2011F067
:1028A000898311C0CC2011F0412E0DC0DD2011F024
:1028B000198309C0EE2011F0482E05C0FF2011F445
:1028C000782E01C0712E80E00E948C03622D772744
:1028D00067FD7095452D552747FD5095EB818E2F4F
:1028E000992787FD909524E001E00E949B12632DBB
:1028F000772767FD7095462D552747FD5095FA813E
:102900008F2F992787FD909524E00E949B12642DBC
:10291000772767FD7095472D552747FD50952981ED
:10292000822F992787FD909524E00E949B128C812D
:102930009D810E94BA06115008F077CF8CE291E099
:102940000E94BA0688859985019699878887EE81C5
:10295000FF8128853985E217F3070CF073CE29969D
:102960000FB6F894DEBF0FBECDBFCF91DF911F91A0
:102970000F91FF90EF90DF90CF90BF90AF909F901E
:102980008F907F906F905F904F903F902F90089521
:102990008F929F92AF92BF92CF92DF92EF92FF926F
:1029A0000F931F93CF93DF934C01A62EAA0CAA0C72
:1029B000CC24C394BB24B3947AC1DD2009F052C067
:1029C000CC2041F181E0E816F10489F4CE0160E009
:1029D00070E040E050E00E94DD0180E090E0BE0148
:1029E00040E050E00E94DD0180E090E06BC0C80153
:1029F00067E070E047E050E00E94DD0187E090E092
:102A0000B80147E050E00E94DD0187E090E067E018
:102A100070E082C082E0E816F10489F4CE0167E03C
:102A200070E047E050E00E94900180E090E0B80143
:102A300047E050E00E94900180E090E09AC0C80119
:102A400060E070E040E050E00E94900187E090E09C
:102A5000BE0140E050E00E94900187E090E060E01D
:102A600070E005C181E0D81609F0ACC0CC2009F4B3
:102A700057C081E0E816F10441F5CE0167E070E04F
:102A800040E050E00E94DD01CE0160E070E047E0F0
:102A900050E00E94DD0187E090E0BE0140E050E0A0
:102AA0000E94DD0180E090E0BE0147E050E00E941E
:102AB000DD0180E090E067E070E0AE010E94DD01A2
:102AC00087E090E060E070E095C0C80167E070E0EA
:102AD00040E050E00E94DD01C80160E070E047E0A6
:102AE00050E00E94DD0187E090E0B80140E050E056
:102AF0000E94DD0180E090E0B80147E050E00E94D4
:102B0000DD0180E090E067E070E0A8010E94DD0157
:102B100087E090E060E070E0A8010E94DD01AAC0BB
:102B200082E0E816F10441F5CE0167E070E040E094
:102B300050E00E949001CE0160E070E047E050E07C
:102B40000E94900180E090E0B80140E050E00E94D7
:102B5000900187E090E0B80147E050E00E949001CA
:102B600080E090E060E070E0A8010E94900187E0C2
:102B700090E067E070E067C0C80167E070E040E0A7
:102B800050E00E949001C80160E070E047E050E032
:102B90000E94900180E090E0BE0140E050E00E9481
:102BA000900187E090E0BE0147E050E00E94900174
:102BB00080E090E060E070E0AE010E94900187E06C
:102BC00090E053C0CC2049F181E0E816F104A1F473
:102BD000CE0167E070E047E050E00E94DD0187E051
:102BE00090E0BE0147E050E00E94DD0187E090E008
:102BF00067E070E0AE0191CFC80160E070E040E0B6
:102C000050E00E94DD0180E090E0B80140E050E03B
:102C10000E94DD0180E090E07DCF82E0E816F104C3
:102C2000A1F4CE0160E070E040E050E00E9490012D
:102C300087E090E0B80140E050E00E94900187E01A
:102C400090E060E070E0A80113C0C80167E070E0A8
:102C500047E050E00E94900180E090E0BE0147E034
:102C600050E00E94900180E090E067E070E0AE01EB
:102C70000E949001C4010E94BA06219601501040A2
:102C8000C830D10509F099CE82E0D81629F480E049
:102C9000CC2009F481E0C82ED39483E0D81629F023
:102CA000C0E0D0E007E010E088CEB394AA94AA2058
:102CB00039F0DD24EB2CFF2483E0E822FF24F0CF61
:102CC000DF91CF911F910F91FF90EF90DF90CF9008
:102CD000BF90AF909F908F9008957F928F929F9218
:102CE000AF92BF92CF92DF92EF92FF920F931F931A
:102CF000CF93DF93E82EF62E742E6901C0E0D0E06A
:102D000077E0872E912C68E0A62EB12C87E078160C
:102D100069F484010C1B1D0BA5014C1B5D0B8E2D52
:102D200090E06F2D70E00E9490010AC0AE0141500A
:102D300050408E2D90E06F2D70E00E9490018E012A
:102D40008E2D90E06F2D70E0A8010E94DD01C6017C
:102D50000E94BA062196C830D105C1F6DF91CF9105
:102D60001F910F91FF90EF90DF90CF90BF90AF90A9
:102D70009F908F907F9008956F927F928F929F92F5
:102D8000AF92BF92DF92EF92FF920F931F93CF9378
:102D9000DF933C015B014A0180E00E948C0300E06C
:102DA00010E01FC00E94A02162E070E00E94282174
:102DB000AC01E3E0440F551FEA95E1F7481B590BBE
:102DC000C801BE010E94DD012196C830D10551F72E
:102DD0000F5F1F4F0830110521F4FF24DD24EE247E
:102DE00030C0C0E0D0E0DECF0E94A021EC010E9404
:102DF000A02168E070E00E942821082F8E1501F1C3
:102E0000CE0168E070E00E942821182F8D15C1F0D6
:102E100090E0602F70E040E050E00E9403028823C1
:102E200021F0812F602F40E003C0812F602F47E009
:102E300095010E946D16C4010E94BA06D12EE02EA3
:102E4000F3948F2D90E08615970574F2DF91CF9162
:102E50001F910F91FF90EF90DF90BF90AF909F90E8
:102E60008F907F906F9008958F929F92AF92BF92B4
:102E7000CF92DF92EF92FF920F931F93CF93DF9346
:102E80004C015B01CC24DD2432C00E94A02164E00F
:102E900070E00E942821EC01EE24FF241AC00E9459
:102EA000A0218C010E94A0219C01C80168E070E073
:102EB0000E942821FC01C90168E070E00E942821DD
:102EC000BC01CF0147E050E00E94DD010894E11C05
:102ED000F11CEC16FD061CF3C5010E94BA068AE738
:102EE0006FEF7FEF0E94C9060894C11CD11CC81463
:102EF000D9045CF2DF91CF911F910F91FF90EF9079
:102F0000DF90CF90BF90AF909F908F9008959F9249
:102F1000AF92BF92CF92DF92EF92FF920F931F93E7
:102F2000CF93DF93982EC92E5B01EE24FF2444C07B
:102F30000E94A0218C010E94A0219C01C80168E090
:102F400070E00E942821D82EC90168E070E00E943C
:102F50002821182F8D2D90E0612F70E047E050E080
:102F60000E94DD0100E0892D9C2D0E94BA068AE7AF
:102F70006FEF7FEF0E94C9060F5F0830A1F7C1E035
:102F8000D0E08D2D90E0612F70E040E050E09E0198
:102F90000E947D07892D9C2D0E94BA0680E00E9428
:102FA0008C032196C930D10561F780E293E00E943D
:102FB000BA060894E11CF11CEA14FB040CF4B8CF27
:102FC000DF91CF911F910F91FF90EF90DF90CF9005
:102FD000BF90AF909F9008952F923F924F925F9233
:102FE0006F927F928F929F92AF92BF92CF92DF9219
:102FF000EF92FF920F931F93DF93CF93CDB7DEB77E
:1030000029970FB6F894DEBF0FBECDBF9D838C838A
:103010007F836E830E94A02180FD03C027E02B8365
:1030200001C01B820E94A02180FD03C037E03A83CB
:1030300001C01A820E94A02180FD03C087E089831D
:1030400001C019829B81992319F407E0902E01C0D9
:1030500099248A80798010E01986188697C00E948A
:10306000A02163E070E00E942821582E1817B9F3C0
:10307000882331F4992009F092C017E0C12E90C046
:10308000E1E08E1731F4882009F08DC0B7E0DB2E27
:103090008BC0F2E08F1719F0B72CC92C82C07720B3
:1030A00021F0C92CD82CBB2404C0C92CD82CA7E0F3
:1030B000BA2E2B81C21639F43A81D31621F4152D7C
:1030C0008981B81661F2C91429F4D81419F4152DA0
:1030D000B71429F216014B2CAA24F7E06F2E2914FD
:1030E00041F0992011F4CA2C04C097E0991609F414
:1030F000C62C381441F0882011F4DA2C04C0E7E023
:103100008E1609F4D62C471441F0772011F4BA2C0E
:1031100004C0F7E07F1609F4B62C2A81622F7727C6
:1031200067FD70953981432F552747FD50952C2D0C
:10313000332727FD30950D2D112707FD1095EB2C1A
:10314000FF24E7FCF094EB818E2F992787FD909563
:103150000E9465058C819D810E94BA0680E00E94D4
:103160008C03F7E0AF1631F49B80CB828A80DA8241
:103170007980B982A3946A9428E0A21609F0AFCFAF
:1031800088859985019699878887152DE885F98521
:103190002E813F81E217F3070CF461CF08C0CC24E5
:1031A000B72CD82C86CFDD24B72CC92C82CF2996FA
:1031B0000FB6F894DEBF0FBECDBFCF91DF911F9148
:1031C0000F91FF90EF90DF90CF90BF90AF909F90C6
:1031D0008F907F906F905F904F903F902F900895C9
:1031E0002F923F924F925F927F928F929F92AF92D7
:1031F000BF92CF92DF92EF92FF920F931F93DF93D4
:10320000CF9300D00F92CDB7DEB71C012B0110E099
:10321000AA24A39482E0898304E0112341F40E944C
:10322000A02162E070E00E942821A82E13C0113076
:1032300049F40E94A02162E070E00E9428218E5F84
:10324000898308C00E94A02162E070E00E942821CA
:10325000082F0C5F1F5F133001F7B02EAA2019F45E
:1032600080E090E005C091E0A91621F487E090E0AD
:103270000E949402E981E23019F480E090E005C0F8
:10328000F981F33021F487E090E00E94EB020430F2
:1032900039F480E090E00E94670244E0B42E08C058
:1032A000053011F0B02E04C087E090E00E94670264
:1032B00011E088249924B6C00E94A02163E070E048
:1032C0000E942821782E8117B9F300E010E081E0F8
:1032D00090E09B838A8337E0C32ED12C26E0E22E38
:1032E000F12C772039F5AA2069F4C8010E94BF02A9
:1032F0008A819B810E9494029A81973069F4AA2462
:10330000A3940AC0C6010E94BF02C7010E94940292
:10331000EA81E73009F4AA24F981F23019F480E057
:1033200090E002C087E090E00E94EB0284E0B816D3
:1033300081F52AC091E0791679F5E981E23069F4E6
:10334000C8010E9402038A819B810E94EB02FA81DC
:10335000F73071F483E089830BC0C6010E94020339
:10336000C7010E94EB029A81973011F4E2E0E983F1
:10337000AA2019F480E090E002C087E090E00E946B
:103380009402F4E0BF1629F480E090E00E94670206
:1033900031C087E090E0FACF84E0B81669F4C80144
:1033A0000E947E028A819B810E9467029A819730E7
:1033B00071F495E0B92E0BC0C6010E947E02C701D0
:1033C0000E946702EA81E73011F484E0B82EAA2057
:1033D00019F480E090E002C087E090E00E9494023F
:1033E000F981F23019F480E090E002C087E090E0CB
:1033F0000E94EB02C1010E94BA060F5F1F4F8A8133
:103400009B8101969B838A830894C108D108089404
:10341000E108F1080730110509F063CF0894811C19
:10342000911C172D841495040CF446CF0F900F9027
:103430000F90CF91DF911F910F91FF90EF90DF9050
:10344000CF90BF90AF909F908F907F905F904F9064
:103450003F902F9008952F923F924F925F926F92DC
:103460007F928F929F92AF92BF92CF92DF92EF9214
:10347000FF920F931F93CF93DF932C014B01880C86
:10348000991C3324DD24D39422242394AA24BB241E
:103490007FC0CC24332011F4CC24C3943C2CCC200A
:1034A00051F00E94A02163E070E00E942821D82EF4
:1034B0008215B9F3282E57E0E52EF12CCC2061F1CE
:1034C000C0E0D0E00FEF1FEF37010894611C711CC2
:1034D0001FC0DD2039F4C8010E94BF02CE010E9446
:1034E000940210C021E0D21639F4C8010E940203F0
:1034F000CE010E94EB0206C0C8010E947E02CE01EE
:103500000E946702C2010E94BA0621960F5F1F4FF8
:10351000C615D705F4F230C07E2CC0E0D0E087019C
:103520000F5F1F4FDD2059F4CE018E0D9F1D0E94AD
:10353000BF02C8018C0F9D1F0E94940215C0CE01CE
:103540008E0D9F1D21E0D21641F40E940203C80196
:103550008C0F9D1F0E94EB0207C00E947E02C801D3
:103560008C0F9D1F0E946702C2010E94BA0621961D
:10357000872D8C0F8830B1F60894E108F1088FEFA1
:10358000E8168FEFF80609F099CF0894A11CB11C3A
:10359000A814B9040CF47DCFDF91CF911F910F9146
:1035A000FF90EF90DF90CF90BF90AF909F908F9063
:1035B0007F906F905F904F903F902F9008952F9243
:1035C0003F924F925F926F927F928F929F92AF92B3
:1035D000BF92CF92DF92EF92FF920F931F93DF93F0
:1035E000CF9300D000D00F92CDB7DEB73C012E01B3
:1035F0000894411C511CE0E82E2E312C84C0B201ED
:103600000E94521FEE24FF2420C09101002E02C010
:10361000359527950A94E2F7F501808190E02823FB
:103620003923232B31F087E090E0B601A8010E94F6
:10363000DD010F5F1F4F0830110539F70894E11CB9
:10364000F11CF5E0EF16F10459F000E010E0520132
:10365000AE0CBF1C72E0C72ED12CCE0CDF1CD5CF18
:10366000AA24BB248CED95E00E94BA06CC24DD246C
:1036700023C0C401B701A8010E940302282FC6017C
:10368000B701A80130E00E9426020F5F1F4F0830EB
:10369000110579F70894E11CF11C88E0E816F104A3
:1036A00019F000E010E0E5CF6401E7E08E16910428
:1036B00019F4EE24FF2419C0EE24FF2446010894D7
:1036C000811C911CEECF87E090E0B701A8010E9419
:1036D00090010F5F1F4F08301105A9F70894E11CF6
:1036E000F11CF8E0EF16F10419F000E010E0EBCF68
:1036F0000894A11CB11C86E0A816B10409F0B2CF51
:103700000894611C711CF3018081882309F077CF34
:10371000AA24BB248CED95E00E94BA06CC24DD24BB
:1037200023C0C401B701A8010E940302282FC601CB
:10373000B701A80130E00E9426020F5F1F4F08303A
:10374000110579F70894E11CF11CF8E0EF16F1047B
:1037500019F000E010E0E5CF640187E088169104DD
:1037600019F4EE24FF2419C0EE24FF244601089426
:10377000811C911CEECF87E090E0B701A8010E9468
:1037800090010F5F1F4F08301105A9F70894E11C45
:10379000F11CE8E0EE16F10419F000E010E0EBCFC8
:1037A0000894A11CB11CF8E0AF16B10409F0B2CF27
:1037B0000F900F900F900F900F90CF91DF911F916E
:1037C0000F91FF90EF90DF90CF90BF90AF909F90C0
:1037D0008F907F906F905F904F903F902F900895C3
:1037E000CF92DF92EF92FF920F931F93CF93DF93CD
:1037F0006C017B010894E108F1088B010250104034
:10380000080F191F25C0C0E0D0E0F8018081682FA3
:1038100070E06F70707082958F7090E0AE010E94C2
:103820000302282FF8018181682F70E06F7070709B
:1038300082958F7090E0AE0130E00E9426022196C2
:10384000C830D10511F70894E108F1080150104083
:103850001E141F04C4F2C0E0D0E0F6018081682F7E
:1038600070E06F70707082958F7090E0AE010E9472
:1038700090012196C830D10581F7DF91CF911F913A
:103880000F91FF90EF90DF90CF9008958F929F92CD
:10389000AF92BF92CF92DF92EF92FF920F931F935E
:1038A000CF93DF934C018B016130710511F480E0FF
:1038B00001C08FEF0E948C03C0E0D0E00E94A021E5
:1038C00068E070E00E942821B82EA92E0E94A02155
:1038D00068E070E00E942821D82EC92E0E94A02105
:1038E00068E070E00E942821F82EE92E01151105EC
:1038F00059F48B2D9A2D6D2D7C2D4F2D5E2D0E9410
:1039000003028130D9F40DC001301105B9F48B2DBB
:103910009A2D6D2D7C2D4F2D5E2D0E940302882344
:1039200069F48B2D9A2D6D2D7C2D4F2D5E2D9801D8
:103930000E942602C4010E94BA06219681E0CF3F70
:10394000D8070CF4BBCFDF91CF911F910F91FF905F
:10395000EF90DF90CF90BF90AF909F908F900895A1
:103960002F923F924F925F926F927F928F929F928F
:10397000AF92BF92CF92DF92EF92FF920F931F937D
:10398000DF93CF93CDB7DEB7A1970FB6F894DEBF24
:103990000FBECDBF3C016B01A6E08A2E912C8C0E90
:1039A0009D1E80E0B4014CE150E00E94FB1E1E0110
:1039B0000894211C311C240143C0B1010E94521FF4
:1039C0007101F701808100E010E0A82EBB2487E0A0
:1039D00090E0801B910B950102C0359527958A9543
:1039E000E2F720FF08C080E090E067E070E0A80107
:1039F0000E94DD0107C080E090E067E070E0A80170
:103A00000E9490010F5F1F4F0830110501F7C4019C
:103A10006CE170E00E94F01BC3010E94BA0608949A
:103A2000E11CF11CE414F50461F60894C11CD11CDE
:103A3000C2016CE170E00E94F01BC3010E94BA0653
:103A4000F6018081882309F0B8CF00E010E0F6E0AD
:103A5000EF2EF12CEC0EFD1EC7016CE170E00E9410
:103A6000F01BC3010E94BA060F5F1F4F0C311105F6
:103A700099F7A1960FB6F894DEBF0FBECDBFCF91D8
:103A8000DF911F910F91FF90EF90DF90CF90BF904B
:103A9000AF909F908F907F906F905F904F903F90EE
:103AA0002F9008957F928F929F92AF92BF92CF9264
:103AB000DF92EF92FF920F931F93DF93CF93CDB7D7
:103AC000DEB76C970FB6F894DEBF0FBECDBF4C01CA
:103AD0005B0180E08E010F5F1F4FB8014CE150E0A9
:103AE0000E94FB1E84E0E82EF12CCC24DD24702EF5
:103AF000012F2AC00E94A0210894E108F10863E088
:103B000070E00E942821E80EF91E88E0E816F10412
:103B100024F0B7E0EB2EF12C04C0F7FE02C0EE2437
:103B2000FF24872D902F6CE170E00E94F01B80E055
:103B300090E067E070E0A7010E94DD01C5010E94EE
:103B4000BA060894C11CD11CC814D9049CF26C9606
:103B50000FB6F894DEBF0FBECDBFCF91DF911F919E
:103B60000F91FF90EF90DF90CF90BF90AF909F901C
:103B70008F907F9008959F92AF92BF92CF92DF92E5
:103B8000EF92FF920F931F93DF93CF93CDB7DEB7E2
:103B900060970FB6F894DEBF0FBECDBF5C016B011E
:103BA00081E08E010F5F1F4FB80140E150E00E949D
:103BB000FB1EEE24FF24902E012F15C0A701477095
:103BC000507084E090E060E070E00E94DD01C6018A
:103BD0000E94BA06892D902F6CE170E00E94F01BC4
:103BE0000894E11CF11CEA14FB0444F360960FB640
:103BF000F894DEBF0FBECDBFCF91DF911F910F9123
:103C0000FF90EF90DF90CF90BF90AF909F9008957E
:103C1000EF92FF920F931F93E82EF62E072F10E0DE
:103C200080E00E948C038E2D612F0E9418038F2D3F
:103C3000902F0E94BA061F5F183091F717E080E0BE
:103C40000E948C038E2D612F0E9418038F2D902FC0
:103C50000E94BA06115098F71F910F91FF90EF90B4
:103C600008958F929F92AF92BF92CF92DF92EF9280
:103C7000FF920F931F93CF93DF935C016B0180E062
:103C80000E948C03C0E0D0E093E0892E912C1C149C
:103C90001D0414F0CE0103C0C4018C1B9D0BAC01AC
:103CA0004C5F5F4F7401E81AF90ACA01BA01970123
:103CB00087010E948504C5010E94BA0680E00E9427
:103CC0008C032196C430D10511F7DF91CF911F915C
:103CD0000F91FF90EF90DF90CF90BF90AF909F90AB
:103CE0008F9008952F923F924F925F926F927F92A2
:103CF0008F929F92AF92BF92CF92DF92EF92FF92FC
:103D00000F931F93DF93CF9300D0CDB7DEB79A8385
:103D100089834B011A012901AA24BB244EEF642E8A
:103D20004FEF742E660E771E4BC0CC24DD2488E046
:103D3000C816D10434F437E0E32EF12CEC18FD085A
:103D400006C028EFE22E2FEFF22EEC0CFD1C80E0D7
:103D50000E948C0381E090E00E94BA06F89480E013
:103D600090E060E070E040E050E0970187010E9441
:103D700085041214130414F40E943D0891E089167E
:103D8000910421F0E3E08E16910411F40E94DE0804
:103D9000F2E06F16710410F40E947F087894C2015B
:103DA0000E94BA0680E00E948C030894C11CD11CBA
:103DB00080E1C816D10409F0BACF0894A11CB11C47
:103DC000E981FA81AE16BF060CF4AFCF0F900F90C9
:103DD000CF91DF911F910F91FF90EF90DF90CF90E7
:103DE000BF90AF909F908F907F906F905F904F901B
:103DF0003F902F900895813019F48CE190E002C03B
:103E000080E090E0DC01A058BF4F20E030E009C026
:103E1000FD018491FB01E20FF31F80832F5F3F4F71
:103E2000119624173507A4F308951F93142F90E0DB
:103E300023E0880F991F2A95E1F7860F911D89537A
:103E40009E4F0E94B02190E002C0959587951A95EB
:103E5000E2F781701F910895EF92FF920F931F93E5
:103E6000CF93DF937B01C82FD0E033E0CC0FDD1F71
:103E70003A95E1F7C953DE4F00E010E0CE010E9411
:103E8000B021F701E00FF11F80830F5F1F4F2196D4
:103E90000830110599F7DF91CF911F910F91FF9095
:103EA000EF900895EF92FF920F931F93CF93DF93BC
:103EB0007B01805295E0899F8001112400501040C1
:103EC000C0E0D0E0C8010E94B021F701EC0FFD1F57
:103ED000808321960F5F1F4FC530D10599F7DF9181
:103EE000CF911F910F91FF90EF9008950F931F9323
:103EF000182F092F80E00E948C03E12FF02FE6316C
:103F0000F10508F0A2C1E65DFF4FEE0FFF1F05901F
:103F1000F491E02D09948CEB92E064EF71E00E9443
:103F20000D0C93C18CE291E063E070E00E94E71118
:103F30008CC18CE291E062E370E00E94871785C13A
:103F40008AEF90E064E670E00E94EC177EC180E9A1
:103F500091E066E970E00E94EB1277C180E991E0A0
:103F600064E170E00E94C50C70C184EF91E068E2EA
:103F700070E00E94F01869C184EF91E067E070E0A2
:103F80000E942B1A62C18EE591E065E070E00E940C
:103F9000C8145BC18CE291E06CE271E00E943417BE
:103FA00054C184E190E06CED70E040ED57E00E9478
:103FB000BC164BC185E090E061E070E00E94461CB9
:103FC00085E090E060E070E00E94461C85E090E0B3
:103FD00061E070E00E94461C85E090E060E070E0E7
:103FE0000E94461C32C184E190E060E971E00E94C9
:103FF00031112BC18EEE92E064E670E048EE53E0A2
:104000000E94F60922C100E010E0B80163707070F0
:10401000A8014470507082E090E022EC31E00E94F0
:10402000721E0F5F1F4F0830110579F780E293E091
:1040300060E070E00E94311E80E293E061E070E099
:104040000E94311E80E293E060E070E00E94311E29
:1040500080E293E061E070E00E94311EF6C08AE7E2
:1040600090E060E971E00E94081E88E790E060E956
:1040700071E00E94081E89E790E060E971E00E940B
:10408000081E8AE790E060E971E00E94081E88E758
:1040900090E060E971E00E94081E89E790E060E925
:1040A00071E00E94081E80E00E948C03CEC080E078
:1040B0000E948C0380E090E060E273E04FEF50E0FC
:1040C0000E94D50980E090E060E273E040E050E0BB
:1040D0000E94D50981E090E060E273E04FEF50E08C
:1040E0000E94D50981E090E060E273E04FEF50E07C
:1040F0000E94D509AAC08CEB92E00E945909A5C084
:104100008AE76EE571E048E853E120E030E00E9484
:104110005D108AE76EE571E048E853E121E030E0A8
:104120000E945D108AE76EE571E048E853E120E007
:1041300030E00E945D108AE76EE571E048E853E1E7
:1041400021E030E00E945D1088E76EE571E048E80C
:1041500053E120E030E00E945D1088E76EE571E0F9
:1041600048E853E121E030E00E945D1089E76EE508
:1041700071E048E853E120E030E00E945D1089E7FB
:104180006EE571E048E853E121E030E00E945D1007
:104190005CC08AE760E070E048EC50E021E030E08D
:1041A0000E94A70F8CED95E00E94BA068AE761E0B5
:1041B00070E048EC50E021E030E00E94A70F8CED69
:1041C00095E00E94BA068AE760E070E048EC50E0B3
:1041D00022E030E00E94A70F8CED95E00E94BA0625
:1041E0008AE761E070E048EC50E022E030E00E94B5
:1041F000A70F8CED95E00E94BA0689E760E070E0B9
:1042000048EC50E021E030E00E94A70F8CED95E0F3
:104210000E94BA0689E761E070E048EC50E021E0D6
:1042200030E00E94A70F8CED95E00E94BA060DC009
:1042300084EF91E064EF71E00E94521D06C084E1BA
:1042400090E068EC70E00E941C0F1F910F910895A0
:1042500097FB092E07260AD077FD04D00CD006D094
:1042600000201AF4709561957F4F0895F6F79095A8
:1042700081959F4F0895AA1BBB1B51E107C0AA1F40
:10428000BB1FA617B70710F0A61BB70B881F991FF7
:104290005A95A9F780959095BC01CD010895A0E0AD
:1042A000B0E0E5E5F1E20C94FA21EC01A880B980D8
:1042B000CA80DB80A114B104C104D10441F484E2BA
:1042C000A82E89EDB82E8BE5C82E87E0D82EC60122
:1042D000B5012DE133EF41E050E00E94D72127EAFC
:1042E00031E440E050E00E94B8217B018C01C6011E
:1042F000B5012DE133EF41E050E00E94D721CA0122
:10430000B9012CEE34EF4FEF5FEF0E94B8216E0D34
:104310007F1D801F911F97FF04C061507040804037
:104320009048688379838A839B839B013F77C90187
:10433000CDB7DEB7EAE00C9416220E944F21089513
:1043400080E690E00E944F210895A0E0B0E08093C5
:10435000600090936100A0936200B09363000895A1
:10436000E199FECF9FBB8EBBE09A99278DB308954C
:10437000629FD001739FF001829FE00DF11D649F49
:10438000E00DF11D929FF00D839FF00D749FF00DD5
:10439000659FF00D9927729FB00DE11DF91F639F76
:1043A000B00DE11DF91FBD01CF011124089597FB48
:1043B000092E05260ED057FD04D04BD00AD0001C84
:1043C00038F450954095309521953F4F4F4F5F4FB2
:1043D0000895F6F790958095709561957F4F8F4F72
:1043E0009F4F08952F923F924F925F926F927F92CC
:1043F0008F929F92AF92BF92CF92DF92EF92FF92F5
:104400000F931F93CF93DF93CDB7DEB7CA1BDB0BA0
:104410000FB6F894DEBF0FBECDBF09942A88398845
:1044200048885F846E847D848C849B84AA84B9844C
:10443000C884DF80EE80FD800C811B81AA81B98158
:10444000CE0FD11D0FB6F894DEBF0FBECDBFED016C
:104450000895A1E21A2EAA1BBB1BFD010DC0AA1FC5
:10446000BB1FEE1FFF1FA217B307E407F50720F0DD
:10447000A21BB30BE40BF50B661F771F881F991F58
:104480001A9469F760957095809590959B01AC01A1
:0A449000BD01CF010895F894FFCF9D
:04449A00010000001D
:00000001FF
